:0E000000C3C0FECFFDCFFCCFFBCFFACFF9CFB0
:10000E00F8CFF7CFF6CFF5CF39C1F3CFF2CFF1CF8F
:10001E00F0CFEFCF2FC2EDCF1027E80364000A0018
:10002E00010000100001100001006400C8009001E2
:10003E002003F8FFFCFFFEFFFFFF000000000000A2
:10004E0000004C43442049324320494E4954004954
:10005E004E543A200042756666312D6275666632E0
:10006E003D202578202D20257820202D2025782034
:10007E002D202578202D2025780D0A005246343368
:10008E0033006E68696574646F3A00646174612050
:10009E00636C65617220627566666572000D0A207A
:1000AE0062756666657220303A20000D0A20627510
:1000BE006666657220313A20000D0A20627566660A
:1000CE00657220323A20000D0A20627566666572EE
:1000DE0020333A20000D0A20627566666572203460
:1000EE003A20000049324320494E4954204D415395
:1000FE005445523A005265706561746564205374BC
:10010E00617274204578652E0000070001002D4EA7
:10011E00414E00494E460000010002004800060014
:10012E0004004A000D006001500006006D015D00E4
:10013E00060073018A000900790190001200820105
:10014E0099000E009401AB000E00A201B9000E0042
:10015E00B001C7000E00BE01D5000E00CC01E300B9
:10016E001100DA01F2001400EB010301010001029B
:10017E001801010017031A010000F894EE27ECBBDA
:10018E00F1E0FBBFEBBFE5BF8DE0A2E0BB27ED9337
:10019E008A95E9F780E094E0A0E6ED930197E9F700
:1001AE00E6E2F1E085919591009761F0A591B59108
:1001BE0005901590BF01F00105900D920197E1F7A2
:1001CE00FB01F0CFEFE5EDBFE4E0EEBFC0E6D1E01E
:1001DE009DC0AA9314D1AEE41CD1A88124D12DD1F7
:1001EE00F4C3AA931A9310E0EFE05E22E981E07F58
:1001FE001E2F46D5E981EF70E295E07F1E2FEFE0CE
:10020E005E223ED5188134C1AA93E8E05E2EEEEF51
:10021E005E2246D5DAC3AA93E9E05E2A41D5D5C35C
:10022E0043D545D5EC91E03019F044D5F4DFF9CF44
:10023E001FC1A1E021C0E4E05E2EA52DCADF83E43C
:10024E008A95F1F7A3E0E0DFA3E0DEDFA3E0DCDFD9
:10025E00A2E0DADFA8E2D8DFAFE0D6DFA1E0D4DF9C
:10026E00A6E0D2DFA0E8D0DFA0E6B1E0D9DFA8EEAD
:10027E00B3E0B4D5DEDFA0E8C7DF08950A921A9284
:10028E00FA926A937A938A939A93AA93BA93EA9379
:10029E00FA93EFB7EA93EAD71BB10CB1ADE6B1E032
:1002AE00DFD0E3E6F0E0FA93EA93E0910B0208D593
:1002BE00E0910C0205D5E0910D0202D5E0910E02FF
:1002CE00FFD4E0910F02FCD484E1A3D46696E12F13
:1002DE00EC7161F4E42D4394F0E0E55FFD4F008393
:1002EE00F40131964F0111F4689420F80991199197
:1002FE00E991EFBFF991E991B991A99199918991FC
:10030E0079916991F990199009901895E0E0E4BB04
:10031E00E5BB4BD090DFA3E7B1E082DF69D57894DF
:10032E00A0EC72DFA0910B02A136A9F4E0E2E093FB
:10033E001002A0EC69DFA9E7B1E072DFA0910D0217
:10034E00C4D4A0910E02C1D4AEE2BFD4A0910F02CC
:10035E0062DF442428C0A0910B02A13621F1A4EF44
:10036E00B1E03CD5A2E8B1E07BD0A4E9B1E078D011
:10037E00A0910B026FD0A2EAB1E072D0A0910C0254
:10038E0069D0A0EBB1E06CD0A0910D0263D0AEEBC2
:10039E00B1E066D0A0910E025DD0ACECB1E060D0C1
:1003AE00A0910F0257D0BCCFFFCFE0E3E4BBE5BB7B
:1003BE0047D0AAEDB1E054D0ADE04CD0E6B7EB7F1C
:1003CE00E6BFE0E0F0E060E870E426D7E1B9FF2791
:1003DE0066277727ADD57DD4C3D2A0E0B0E080E00C
:1003EE0090E430D6A0E0B0E080E890E479D667D50E
:1003FE00E0B9E4E0E6BF8BE18A95F1F708951A9330
:10040E00E4EAE6BF69D4F1F367D4F1F368D4199145
:10041E00089569D461D4F1F362D4183211F41881BD
:10042E0027C0188125C05FD457D4F1F358D41832A1
:10043E0011F418811DC018811BC0E4E9E6BF0895B0
:10044E00E0E0E0BDE3E3E9B9E9B9E6E8E0BDE8E9FB
:10045E00EAB90895AA935D9BFECFE881ECB9B5C2C7
:10046E0023D425D4EC91E03019F024D4F3DFF9CF66
:10047E00229608950A921A92FA926A937A938A931E
:10048E009A93AA93BA93EA93FA93EFB7EA93EAD6BA
:10049E00109100020091FF0130910E032091010294
:1004AE00E12FA0910F03B0911003F0E0EA0FFB1FB4
:1004BE00AF01E1B1E87FE83011F420E002C0E03195
:1004CE0019F4E0910B0310C0E83111F0E83221F578
:1004DE00031780F4E02F0F5FA0910C03B0910D0372
:1004EE00F0E0AE0FBF1FEC91E3B9E6B7EF70E06836
:1004FE00E6BF11C0E09111031E1760F4E0910B03EB
:10050E00E160E0930B03E89421F8E6B7EF70E06A40
:10051E00E6BFFBC033C0F9C0E03529F4E3B1DA0120
:10052E00EC931F5F02C0E03471F4E0911103E150CF
:10053E001E1720F0E6B7EF70E06803C0E6B7EF7065
:10054E00E06CE6BFE2C0E83529F4E3B1DA01EC93E2
:10055E001F5F02C0E03209F402C0E03309F402C0AA
:10056E00E83469F4203051F421FE03C0031728F05B
:10057E0005C0E09111031E1708F424E0C0C0E83353
:10058E0029F422E0E6B7EF70E068BCC0E83611F05F
:10059E00E83711F422E005C0E03611F0E03791F4AF
:1005AE0020E010E0E89421F8E0911203E03029F405
:1005BE0021E0E6B7EF70E06803C0E6B7EF70E06CDD
:1005CE00E6BFA3C0E03811F0E03929F521FE02C0E4
:1005DE0021E095C0E3B1DA01EC931F5FE0911203C5
:1005EE001E17B0F4E0911303F0911403309711F439
:1005FE0026E085C0A0E0E0911303F0911403099565
:10060E00E03029F0E6B7EF70E06CE6BF7EC002C0C6
:10061E00689421F802C0E83809F402C0E83929F4D8
:10062E00E6B7EF70E068E6BF70C0E03AA9F4E6B74F
:10063E00EF70E06CE6BF689422F8E0911303F0913E
:10064E001403309739F0A1E0E0911303F0911403F5
:10065E00099501C026E059C0E03B11F422E002C02A
:10066E00E83AB9F4E0911503F0911603309759F07A
:10067E00A0E0E0911503F091160309953E2FE030AE
:10068E0011F020E002C026E03AC000E0E89421F824
:10069E0002C0E83BE1F421FE02C021E030C0E02FB1
:1006AE000F5FA0910C03B0910D03F0E0AE0FBF1FD2
:1006BE00EC91E3B9031720F4E6B7EF70E06C05C0D8
:1006CE00689421F8E6B7EF70E068E6BF1EC0E03C24
:1006DE0011F0E83C89F4E6B7EF70E06CE6BFE0910C
:1006EE001503F0911603309731F0A1E0E091150358
:1006FE00F0911603099507C0E03039F423E0E6B710
:10070E00EF70E06DE6BF689422F81093000200933C
:10071E00FF012093010230930E03ABD52696E9918B
:10072E00EFBFF991E991B991A99199918991799137
:10073E006991F99019900990189573D57B816A810A
:10074E00F981E88177FB770F67FD7160972F9E57D0
:10075E0081F078F0983190F4AA27BB278827089467
:10076E008795B795A7959A95D1F7EA23FB2368232A
:10077E0005C0E8947727EE27FF2766276F777695D3
:10078E0008F4606877F9A991B99189919991EA175E
:10079E00FB076807790797FB089543D533D5CDDF5F
:1007AE0036D511F4A7D203C0EEF7A4D2A5D2249663
:1007BE00089537D524975AD5A5D249D52CF0EFEF09
:1007CE00FFEF6FE77FEF58C0A2D226D5ADB7BEB709
:1007DE0011971F930F9323D30F911F919DD292D2F6
:1007EE00E3EFF4E065E37FE3C0D430F490D28AD235
:1007FE00D9D392D2015010408AD27ED27F936F937A
:10080E00FF93EF9384D2A0E0B0E080E89FE3CAD3D9
:10081E00AF91BF918F919F9163D483D2A6E2B2E440
:10082E0085E69FE30FD455D2EEE4F1E164E570E482
:10083E00FDD4B1D367D206D47F936F93FF93EF931A
:10084E0079D2ADE4B1E184ED9FE3A5D3AF91BF9131
:10085E008F919F9145D47F936F93FF93EF93F80100
:10086E00BAD466D3A8E1B2E781E39FE3EBD3AF91AD
:10087E00BF918F919F9196D300D52A960895D1D48A
:10088E002897F4D45CD2E0E5FCEA6EEA72EC6DD403
:10089E0010F45AD262C0EA85FB856C857D85D3D46F
:1008AE0011F457D25AC04BD2E8E1F2E761EB72E491
:1008BE005CD409F008F405C0EFEFFFEF6FE77FE7B8
:1008CE004CC03DD2EBE3FAEA68EB7FE3BBD3EA8799
:1008DE00FB876C877D8733D260DFF3D28F012FD2F7
:1008EE007AD426D3A3D457D3F4D1E0E0F0E060E07D
:1008FE007FE39CD450D315D2ADE6BCE48CE69DE3E9
:10090E00A1D3A6EAB3EE86EE90E44CD3FBD19AD3F4
:10091E0003D210D2A8E2BDE886EA91E443D3EA837B
:10092E00FB836C837D83F3D1AA81BB818C819D81F6
:10093E0039D3A3EFB4E085EB9FE384D37F936F931A
:10094E00FF93EF93DFD1F6D126D3AF91BF918F9165
:10095E009F91C6D361D4D80173D28FD42E960895A9
:10096E0060D42497FBD16FD411F4EED127C0FBD104
:10097E006ED444F4FDD167D411F4EBD11FC0F3D182
:10098E00FCD11CC0F5D1DE019CD22ED4B3D1D0D275
:10099E00DF01CB01EDD161D411F0D6D10FC0DED184
:1009AE005BD297D1EAD1E887F9876A877B87E8819E
:1009BE00E17011F4D3D102C0D1D14ED22C9608954C
:1009CE00AA935D9BFECFE881ECB9219608956CD178
:1009DE00AA81F6DF6CD1ED91FD913196FE93EE93E7
:1009EE002396089561D126973DD410E0AC85BD8540
:1009FE00E0E0F0E0ED93FC93EA89FB893196EA8B17
:100A0E00FB8B3197E4912E2FE03009F4FCC0E12FDF
:100A1E00E03031F4253211F411E001C0B6D1F2C04C
:100A2E00E130A1F4253211F4B0D1EBC012E040E078
:100A3E0000E02D3211F401E0E5C02B3211F44BE24F
:100A4E00E1C0203211F440E2DDC002C0E23039F4E0
:100A5E0050E013E0203311F40068D4C003C0E3303B
:100A6E0009F0D0C0203310F02A3308F007C0AAE0F6
:100A7E005A9F502DE22FE0535E0FC4C0E22FE33693
:100A8E0039F48AD18CD188D1A481AA938CD1B9C0E2
:100A9E00E33729F48ED18FD1DCD01E2F07C0E0377B
:100AAE0049F487D188D1E0D01E2F086002600F77FD
:100ABE0030E02DC0E43611F0E93611F4046002C0C6
:100ACE00E53729F4E6E2F0E07FD115E00BC0E8351A
:100ADE0011F4086003C0E83709F093C0E0E3F0E0DA
:100AEE0073D114E002FF11C064D171D1AB85AA237A
:100AFE0032F4EA85FB855DD3EA87FB874DE2403011
:100B0E0011F01F5F01C00B7F02C053D160D100FDF9
:100B1E0010C0151770F407FF08C002FF04C00B7F4A
:100B2E00242F115001C020E301C020E22ED15150DC
:100B3E00F0CF312F01FF15C0303091F003FF05C00B
:100B4E00EE81FF81259140D105C0AE81BF812D91EF
:100B5E00AE83BF831AD1503009F051503150ECCFD3
:100B6E0047C020E3EE81FF8144D3E887F987EE8109
:100B7E00FF81329629D1E885F985AA85BB85AE1706
:100B8E00BF0750F02F5FA885B985EA85FB85EA1B64
:100B9E00FB0BEA87FB87EFCF2A3328F003FF02C057
:100BAE00295F01C0295D04FD19C0213320F4A885F9
:100BBE00B985119709F409C0531710F000FF01C051
:100BCE0011C020E207FF0AC020E3006102FF06C049
:100BDE000B7F4A93E8D0503009F05150D6D05030A8
:100BEE0009F051503150A885B985129708F0B9CF48
:100BFE0000FF07C0503029F05150E0E2EA93D3D005
:100C0E00F9CF10E0F9CEAC85BD85EAD232D3649629
:100C1E000895FF92F82E269729D3DE011496C5D299
:100C2E008D01E0E0EC83ED83EE83EF83DE01189619
:100C3E00BCD2D6D2FA93EA931A930A93EEEEF4E06C
:100C4E00FA93EA93DE011896CDDE17D32896FF901D
:100C5E0008952AD0A991B991EE27FF276D916623A9
:100C6E0011F03196FBCF08951FD0AA27BB27E9912B
:100C7E00F9910590002011F01196FBCFFD0108951A
:100C8E00512AE4E05E2AA52DA4DA83E08A95F1F7D5
:100C9E00EBEF5E22A52D9DDA8DE08A95F1F7089592
:100CAE00A52D97DAA8819DCABA93AA930895A88113
:100CBE00B9810895FCDFED91A883B983AE2F089515
:100CCE00FF2766277727A8D20895A5DAA8ECB0E00B
:100CDE0085C0DF01CB010895E6B7E0780895E1B154
:100CEE00E87F1E2F0895AA931A93E981E3B9E4E8E9
:100CFE00E6BF089582D20895A0E0B0E080E89FE3B9
:100D0E004AD10895AE81BF81888599850895EE8177
:100D1E00FF81688579850895EE83FF8368877987DB
:100D2E000895FADFF4DFEEDF8DD1EA83FB836C8367
:100D3E007D830895EA81FB816C817D810895AA856A
:100D4E00BB858C859D850895E0E0F0E060E070E065
:100D5E000895E0E0F0E060E87FE30895E885F98526
:100D6E006A857B850895A885B9858A859B850895B2
:100D7E00EC81FD816E817F8108951BDDAC81BD818B
:100D8E008E819F815FD1A5DF7ACD2A93AD85BE85F9
:100D9E00EF85F88909950895E889F98908953497BA
:100DAE00E88BF98B0895AD85BE85EF85F889099599
:100DBE000895F2DFF4CFA889B989149611D2EE8383
:100DCE00FF83AE81BF810895EE83FF830895A889C6
:100DDE00B989149605D2EA87FB870895109639F0E3
:100DEE0080ED97E00197F1F7A8951197C9F708954F
:100DFE00EE27A898A09A80EC93E00197F1F7A098BF
:100E0E0085E28A95F1F7989B08958BEC8A95F1F718
:100E1E00989BE1E08CE093E00197F1F70895E9915A
:100E2E00F9916991799177FB660F771F88277E5725
:100E3E00880B7D938C937EE7769567956EF008957B
:100E4E00E991F9916991799177FB660F771F7A0F86
:100E5E00769567950EF0089530976040704009F0D2
:100E6E0070580895552342F4503811F4E0FF04C031
:100E7E003196691F791F6BF050E8572711F45F9375
:100E8E00CFC05F3F31F0660F000C57956795752FF9
:100E9E0008955F9300200AF0CFC0C8C050E8192E05
:100EAE001522880F991F9527550F879550E8072E05
:100EBE000522660F771F7527550F6795089568945D
:100ECE0001C0E8945F93F2DF703818F07F3F08F4AA
:100EDE00A7C056E1571BAAF4519558300EF459305D
:100EEE0030F0EFEFFFEF6FEF7FE777F91AC077275C
:100EFE005523B9F0EE0FFF1F661F771F5A95D1F7D6
:100F0E0010C07727583028F0EF2FF62F672F585044
:100F1E00F9CF552331F076956795F795E7955A9564
:100F2E00D1F700200AF449D15F910895689401C069
:100F3E00E894309760407040B1F0002426F077239B
:100F4E0012F400943AD1172E7EE1112032F07A95E8
:100F5E00EE0FFF1F661F111CF9CFEF2FF62F612D1D
:100F6E005F938ADF5F9108954F93AF01FD01DA0120
:100F7E00AB01BC01CA01402D012C142E4F910895D6
:100F8E00EA0FFB1F681F0895E095F0956095EF5FDF
:100F9E00FF4F6F4F08955F9381DF903871F150E8E6
:100FAE00152604C05F937ADF903839F1703821F13D
:100FBE00572F591B2BF112F4D7DFFACF583118F0F7
:100FCE00AA27BB278827583028F0AB2FB82F8827A1
:100FDE005850F9CF552329F08695B795A7955A9570
:100FEE00D9F7502D512572F0CBDF38F46795F79570
:100FFE00E795739513F420C0B7DF3EDF5F91089538
:10100E00D8F7FBCFEA1BFB0B680B51F010F40094E2
:10101E00BBDF662392F3EE0FFF1F661F7A95CBF7A9
:10102E00EE27FF27662777275F910895EFEFFFEFF3
:10103E006FE77FEF5F910895EFEFFFEF6FE77FE7C9
:10104E005F9108955F932ADF703851F3903841F322
:10105E0001240894791F23F41CF300203AF3ECCFFB
:10106E000F921F932F933F934F9311272227992768
:10107E00689FA0018F9F302D410D591F6B9F300D22
:10108E00411D591F8E9F27D0BF9F25D06A9F23D009
:10109E00BE9F1DD0AF9F1BD0AE9F110D291F391FB4
:1010AE00491F591FE32FF42F652F522F4F913F9158
:1010BE002F911F910F9066232AF0550FEE1FFF1FE1
:1010CE00661F02C073954BF2CDDE5F910895100D31
:1010DE00211D391F02C0200D311D491F591F0895B2
:1010EE005F93DCDE703821F411200AF49FCFA4CF79
:1010FE00903809F495CF01240894970B1BF4D4F380
:10110E000020F3CF792F1F932F933F934F931124EA
:10111E001127222733274427552790E2AE17BF0702
:10112E008607410730F0AE1BBF0B860B410B0894B0
:10113E0001C08894551F221F331F111CAA1FBB1FED
:10114E00881F441F9A9551F7F901612D4F913F91D8
:10115E002F911F91662332F0550FEE1FFF1F661F52
:10116E007A9543F27FDE5F91089599239AF0772363
:10117E0042F0971748F029F4AE17BF07860720F004
:10118E0031F098948894089598940894089518943A
:10119E00889408957723C2F7971798F3A9F7EA175B
:1011AE00FB07680788F399F3ECCF0024AF0DB01D51
:1011BE000895F195E195F0400895F095609570953C
:1011CE00E195FF4F6F4F7F4F0895FE2FFF0FFF0BDF
:1011DE006F2F7F2F08956F2F660F660B762F089552
:1011EE00ED91FC9111970895ED93FD936D937C9382
:1011FE0008950590F491E02D0895E881F9816A81B2
:10120E007B810895A881B9818A819B810895E883A5
:10121E00F9836A837B8308957A936A93FA93EA93A8
:10122E0008959A938A93BA93AA930895182E862FA7
:10123E00612D192E972F712D1B2EBF2FF12D1A2ECA
:10124E00AE2FE12D08953097604070400895002430
:10125E000A160B06080609060895EA17FB07680723
:10126E00790708955A934A933A932A931A930A93B5
:10127E0008955D814C813B812A81198108810895F1
:00000001FF
