:06000000ABC0FECFFDCFF6
:10000600FCCFFBCFFACFF9CFF8CFF7CFF6CFF5CFAE
:1000160021C1F3CFF2CFF1CFF0CFEFCF01C2EDCFB9
:100026001027E80364000A00010000100001100018
:1000360001006400C80090012003F8FFFCFFFEFFEA
:10004600FFFF0000000000004C43442049324320DB
:10005600494E495400494E543A200042756666316D
:100066002D62756666323D202578202D2025782064
:10007600202D202578202D202578202D2025780D4F
:100086000A00636C6561722072785F77725F696ED1
:1000960064657820696E746572727570200D0A0049
:1000A600205246343333006869656E2074686920CF
:1000B600736F2061200D0A006E68696574646F3A7B
:1000C60000636C6561722072785F77725F696E6437
:1000D600657820696E207768696C65200D0A2000B6
:1000E60049324320494E4954204D41535445523AD2
:1000F6000052657065617465642053746172742082
:100106004578652E0000070001002D4E414E00493E
:100116004E460000010002004800040004004A00A8
:100126000D0060014E0006006D015B0007007301C3
:10013600A60009007A01BE0011008301E600140042
:100146009401F7000100AA010C010100C5010E018E
:100156000000F894EE27ECBBF1E0FBBFEBBFE5BF78
:100166008DE0A2E0BB27ED938A95E9F780E094E065
:10017600A0E6ED930197E9F7EAE1F1E08591959123
:10018600009761F0A591B59105901590BF01F0011A
:1001960005900D920197E1F7FB01F0CFEFE5EDBF7A
:1001A600E4E0EEBFC0E6D1E0A4C0AA93FED0AEE480
:1001B60006D1A8810ED117D1DEC3AA931A9310E0F7
:1001C600EFE05E22E981E07F1E2F2ED5E981EF70F8
:1001D600E295E07F1E2FEFE05E2226D518811EC134
:1001E600AA93E8E05E2EEEEF5E222ED5C4C3AA9354
:1001F600E9E05E2A29D5BFC32BD52DD5EC91E03099
:1002060019F02CD5F4DFF9CF09C1A1E021C0E4E053
:100216005E2EA52DCADF83E48A95F1F7A3E0E0DF21
:10022600A3E0DEDFA3E0DCDFA2E0DADFA8E2D8DFCE
:10023600AFE0D6DFA1E0D4DFA6E0D2DFA0E8D0DFD2
:10024600A0E6B1E0D9DFA8EEB3E0A0D5DEDFA0E8F6
:10025600C7DF08950A921A92FA926A937A938A935A
:100266009A93AA93BA93EA93FA93EFB7EA93D6D7F7
:100276001BB10CB1ADE6B1E0C9D0E12FEC7149F587
:10028600E42D4394F0E0EC54FE4F0083E1E6F0E009
:10029600EBD4E091B401EBD4E091B501E8D4E09160
:1002A600B601E5D4E091B701E2D4E091B801DFD41C
:1002B60084E185D46696E5E0E41521F44424E8E873
:1002C600F0E0DAD46394E5E0E61519F46624689460
:1002D60020F809911991E991EFBFF991E991B99146
:1002E600A9919991899179916991F99019900990BB
:1002F6001895E0E0E4BBE5BB2ED089DFA3E7B1E0CB
:100306007BDF4ED57894A0EC6BDFA091B401A136CB
:1003160001F5A4EFB1E03AD5EDEAF0E0ADD4A0ECFA
:100326005FDFAAE7B1E068DFA091B60160DFA091C8
:10033600B6015DDFAEE25BDFA091B70158DFA091A9
:10034600B801A53631F4E7ECF0E096D4E0E0E093AE
:10035600B401D9CFFFCFE0E3E4BBE5BB47D0A3E8C8
:10036600B1E054D0ADE04CD0E6B7EB7FE6BFE0E0BD
:10037600F0E060E870E428D7E1B9FF276627772721
:10038600AFD57FD4C3D2A0E0B0E080E090E432D60F
:10039600A0E0B0E080E890E47BD669D5E0B9E4E07F
:1003A600E6BF8BE18A95F1F708951A93E4EAE6BF72
:1003B6006BD4F1F369D4F1F36AD4199108956BD42F
:1003C60063D4F1F364D4183211F4188127C018816C
:1003D60025C061D459D4F1F35AD4183211F41881D6
:1003E6001DC018811BC0E4E9E6BF0895E0E0E0BD4A
:1003F600E3E3E9B9E9B9E6E8E0BDE8E9EAB9089571
:10040600AA935D9BFECFE881ECB9B5C221D423D473
:10041600EC91E03019F022D4F3DFF9CF229608955B
:100426000A921A92FA926A937A938A939A93AA9361
:10043600BA93EA93FA93EFB7EA93ECD61091A9012F
:100446000091A8013091BC012091AA01E12FA09151
:10045600BD01B091BE01F0E0EA0FFB1FAF01E1B1B3
:10046600E87FE83011F420E002C0E03119F4E091B1
:10047600B90110C0E83111F0E83221F5031780F414
:10048600E02F0F5FA091BA01B091BB01F0E0AE0F73
:10049600BF1FEC91E3B9E6B7EF70E068E6BF11C0A5
:1004A600E091BF011E1760F4E091B901E160E093AD
:1004B600B901E89421F8E6B7EF70E06AE6BFFBC041
:1004C60033C0F9C0E03529F4E3B1DA01EC931F5FDC
:1004D60002C0E03471F4E091BF01E1501E1720F034
:1004E600E6B7EF70E06803C0E6B7EF70E06CE6BF12
:1004F600E2C0E83529F4E3B1DA01EC931F5F02C0EC
:10050600E03209F402C0E03309F402C0E83469F4C9
:10051600203051F421FE03C0031728F005C0E091F6
:10052600BF011E1708F424E0C0C0E83329F422E016
:10053600E6B7EF70E068BCC0E83611F0E83711F4B2
:1005460022E005C0E03611F0E03791F420E010E03B
:10055600E89421F8E091C001E03029F421E0E6B703
:10056600EF70E06803C0E6B7EF70E06CE6BFA3C0CB
:10057600E03811F0E03929F521FE02C021E095C0EE
:10058600E3B1DA01EC931F5FE091C0011E17B0F4EE
:10059600E091C101F091C201309711F426E085C0C7
:1005A600A0E0E091C101F091C2010995E03029F087
:1005B600E6B7EF70E06CE6BF7EC002C0689421F833
:1005C60002C0E83809F402C0E83929F4E6B7EF704A
:1005D600E068E6BF70C0E03AA9F4E6B7EF70E06CF9
:1005E600E6BF689422F8E091C101F091C20130970C
:1005F60039F0A1E0E091C101F091C201099501C075
:1006060026E059C0E03B11F422E002C0E83AB9F412
:10061600E091C301F091C401309759F0A0E0E09158
:10062600C301F091C40109953E2FE03011F020E09E
:1006360002C026E03AC000E0E89421F802C0E83B98
:10064600E1F421FE02C021E030C0E02F0F5FA0914F
:10065600BA01B091BB01F0E0AE0FBF1FEC91E3B958
:10066600031720F4E6B7EF70E06C05C0689421F834
:10067600E6B7EF70E068E6BF1EC0E03C11F0E83C6C
:1006860089F4E6B7EF70E06CE6BFE091C301F09144
:10069600C401309731F0A1E0E091C301F091C401AB
:1006A600099507C0E03039F423E0E6B7EF70E06D56
:1006B600E6BF689422F81093A9010093A80120933D
:1006C600AA013093BC01ADD52696E991EFBFF99109
:1006D600E991B991A9919991899179916991F99045
:1006E60019900990189575D57B816A81F981E88101
:1006F60077FB770F67FD7160972F9E5781F078F033
:10070600983190F4AA27BB27882708948795B79530
:10071600A7959A95D1F7EA23FB23682305C0E894A9
:100726007727EE27FF2766276F77769508F46068A8
:1007360077F9A991B99189919991EA17FB07680709
:10074600790797FB089545D535D5CDDF38D511F412
:10075600A9D203C0EEF7A6D2A7D22496089539D51A
:1007660024975CD5A7D24BD52CF0EFEFFFEF6FE7C0
:100776007FEF58C0A4D228D5ADB7BEB711971F9347
:100786000F9325D30F911F919FD294D2E3EFF4E0FC
:1007960065E37FE3C2D430F492D28CD2DBD394D219
:1007A600015010408CD280D27F936F93FF93EF93CA
:1007B60086D2A0E0B0E080E89FE3CCD3AF91BF91B2
:1007C6008F919F9165D485D2A6E2B2E485E69FE338
:1007D60011D457D2EEE4F1E164E570E4FFD4B3D36B
:1007E60069D208D47F936F93FF93EF937BD2ADE4E6
:1007F600B1E184ED9FE3A7D3AF91BF918F919F9114
:1008060047D47F936F93FF93EF93F801BCD468D3DB
:10081600A8E1B2E781E39FE3EDD3AF91BF918F915A
:100826009F9198D302D52A960895D3D42897F6D4C3
:100836005ED2E0E5FCEA6EEA72EC6FD410F45CD2AC
:1008460062C0EA85FB856C857D85D5D411F459D2C5
:100856005AC04DD2E8E1F2E761EB72E45ED409F0EA
:1008660008F405C0EFEFFFEF6FE77FE74CC03FD21C
:10087600EBE3FAEA68EB7FE3BDD3EA87FB876C8795
:100886007D8735D260DFF5D28F0131D27CD428D373
:10089600A5D459D3F6D1E0E0F0E060E07FE39ED442
:1008A60052D317D2ADE6BCE48CE69DE3A3D3A6EA09
:1008B600B3EE86EE90E44ED3FDD19CD305D212D290
:1008C600A8E2BDE886EA91E445D3EA83FB836C831C
:1008D6007D83F5D1AA81BB818C819D813BD3A3EF1A
:1008E600B4E085EB9FE386D37F936F93FF93EF93FB
:1008F600E1D1F8D128D3AF91BF918F919F91C8D301
:1009060063D4D80175D291D42E96089562D42497D3
:10091600FDD171D411F4F0D127C0FDD170D444F4C7
:10092600FFD169D411F4EDD11FC0F5D1FED11CC0A1
:10093600F7D1DE019ED230D4B5D1D2D2DF01CB01C0
:10094600EFD163D411F0D8D10FC0E0D15DD299D1E7
:10095600ECD1E887F9876A877B87E881E17011F433
:10096600D5D102C0D3D150D22C960895AA935D9BBF
:10097600FECFE881ECB9219608956AD1AA81F6DF07
:100986006AD1ED91FD913196FE93EE9323960895EB
:100996005FD126973FD410E0AC85BD85E0E0F0E05E
:1009A600ED93FC93EA89FB893196EA8BFB8B3197B1
:1009B600E4912E2FE03009F4FCC0E12FE03031F451
:1009C600253211F411E001C0B8D1F2C0E130A1F432
:1009D600253211F4B2D1EBC012E040E000E02D3236
:1009E60011F401E0E5C02B3211F44BE2E1C02032F4
:1009F60011F440E2DDC002C0E23039F450E013E009
:100A0600203311F40068D4C003C0E33009F0D0C02D
:100A1600203310F02A3308F007C0AAE05A9F502D61
:100A2600E22FE0535E0FC4C0E22FE33639F48CD1D7
:100A36008ED18AD1A481AA938ED1B9C0E33729F485
:100A460090D191D1DAD01E2F07C0E03749F489D171
:100A56008AD1DED01E2F086002600F7730E02DC0ED
:100A6600E43611F0E93611F4046002C0E53729F4E2
:100A7600E6E2F0E081D115E00BC0E83511F408603C
:100A860003C0E83709F093C0E0E3F0E075D114E065
:100A960002FF11C066D173D1AB85AA2332F4EA8571
:100AA600FB855FD3EA87FB874DE2403011F01F5F7D
:100AB60001C00B7F02C055D162D100FD10C01517D1
:100AC60070F407FF08C002FF04C00B7F242F1150EB
:100AD60001C020E301C020E230D15150F0CF312FC8
:100AE60001FF15C0303091F003FF05C0EE81FF8194
:100AF600259142D105C0AE81BF812D91AE83BF83C2
:100B06001CD1503009F051503150ECCF47C020E392
:100B1600EE81FF8146D3E887F987EE81FF81329621
:100B26002BD1E885F985AA85BB85AE17BF0750F09E
:100B36002F5FA885B985EA85FB85EA1BFB0BEA874B
:100B4600FB87EFCF2A3328F003FF02C0295F01C0DD
:100B5600295D04FD19C0213320F4A885B9851197B4
:100B660009F409C0531710F000FF01C011C020E2BC
:100B760007FF0AC020E3006102FF06C00B7F4A930D
:100B8600EAD0503009F05150D8D0503009F05150C9
:100B96003150A885B985129708F0B9CF00FF07C074
:100BA600503029F05150E0E2EA93D5D0F9CF10E069
:100BB600F9CEAC85BD85ECD234D364960895FF9208
:100BC600F82E26972BD3DE011496C7D28D01E0E0CE
:100BD600EC83ED83EE83EF83DE011896BED2D8D286
:100BE60043D01A930A93E0ECF4E03ED0DE01189667
:100BF600CFDE1BD32896FF9008952AD0A991B991EC
:100C0600EE27FF276D91662311F03196FBCF0895ED
:100C16001FD0AA27BB27E991F9910590002011F072
:100C26001196FBCFFD010895512AE4E05E2AA52D19
:100C3600BCDA83E08A95F1F7EBEF5E22A52DB5DAF3
:100C46008DE08A95F1F70895A52DAFDAA881B5CA8A
:100C5600BA93AA930895A881B9810895FCDFED910E
:100C6600A883B983AE2F0895FA93EA930895FF27D0
:100C760066277727A9D20895F7DF80E0A0DF2296BE
:100C86000895DF01CB010895E6B7E0780895E1B154
:100C9600E87F1E2F0895AA931A93E981E3B9E4E841
:100CA600E6BF089582D20895A0E0B0E080E89FE311
:100CB6004AD10895AE81BF81888599850895EE81D0
:100CC600FF81688579850895EE83FF836887798734
:100CD6000895FADFF4DFEEDF8DD1EA83FB836C83C0
:100CE6007D830895EA81FB816C817D810895AA85C3
:100CF600BB858C859D850895E0E0F0E060E070E0BE
:100D06000895E0E0F0E060E87FE30895E885F9857E
:100D16006A857B850895A885B9858A859B8508950A
:100D2600EC81FD816E817F81089519DDAC81BD81E5
:100D36008E819F815FD1A5DF78CD2A93AD85BE8553
:100D4600EF85F88909950895E889F9890895349712
:100D5600E88BF98B0895AD85BE85EF85F8890995F1
:100D66000895F2DFF4CFA889B989149611D2EE83DB
:100D7600FF83AE81BF810895EE83FF830895A8891E
:100D8600B989149605D2EA87FB870895109639F03B
:100D960080ED97E00197F1F7A8951197C9F70895A7
:100DA600EE27A898A09A80EC93E00197F1F7A09817
:100DB60085E28A95F1F7989B08958BEC8A95F1F771
:100DC600989BE1E08CE093E00197F1F70895E991B3
:100DD600F9916991799177FB660F771F88277E577E
:100DE600880B7D938C937EE7769567956EF00895D4
:100DF600E991F9916991799177FB660F771F7A0FDF
:100E0600769567950EF0089530976040704009F02A
:100E160070580895552342F4503811F4E0FF04C089
:100E26003196691F791F6BF050E8572711F45F93CD
:100E3600CFC05F3F31F0660F000C57956795752F51
:100E460008955F9300200AF0CFC0C8C050E8192E5D
:100E56001522880F991F9527550F879550E8072E5D
:100E66000522660F771F7527550F679508956894B5
:100E760001C0E8945F93F2DF703818F07F3F08F402
:100E8600A7C056E1571BAAF4519558300EF45930B5
:100E960030F0EFEFFFEF6FEF7FE777F91AC07727B4
:100EA6005523B9F0EE0FFF1F661F771F5A95D1F72E
:100EB60010C07727583028F0EF2FF62F672F58509D
:100EC600F9CF552331F076956795F795E7955A95BD
:100ED600D1F700200AF449D15F910895689401C0C2
:100EE600E894309760407040B1F0002426F07723F4
:100EF60012F400943AD1172E7EE1112032F07A9541
:100F0600EE0FFF1F661F111CF9CFEF2FF62F612D75
:100F16005F938ADF5F9108954F93AF01FD01DA0178
:100F2600AB01BC01CA01402D012C142E4F9108952E
:100F3600EA0FFB1F681F0895E095F0956095EF5F37
:100F4600FF4F6F4F08955F9381DF903871F150E83E
:100F5600152604C05F937ADF903839F1703821F195
:100F6600572F591B2BF112F4D7DFFACF583118F04F
:100F7600AA27BB278827583028F0AB2FB82F8827F9
:100F86005850F9CF552329F08695B795A7955A95C8
:100F9600D9F7502D512572F0CBDF38F46795F795C8
:100FA600E795739513F420C0B7DF3EDF5F91089590
:100FB600D8F7FBCFEA1BFB0B680B51F010F400943B
:100FC600BBDF662392F3EE0FFF1F661F7A95CBF702
:100FD600EE27FF27662777275F910895EFEFFFEF4C
:100FE6006FE77FEF5F910895EFEFFFEF6FE77FE722
:100FF6005F9108955F932ADF703851F3903841F37B
:1010060001240894791F23F41CF300203AF3ECCF53
:101016000F921F932F933F934F93112722279927C0
:10102600689FA0018F9F302D410D591F6B9F300D7A
:10103600411D591F8E9F27D0BF9F25D06A9F23D061
:10104600BE9F1DD0AF9F1BD0AE9F110D291F391F0C
:10105600491F591FE32FF42F652F522F4F913F91B0
:101066002F911F910F9066232AF0550FEE1FFF1F39
:10107600661F02C073954BF2CDDE5F910895100D89
:10108600211D391F02C0200D311D491F591F08950A
:101096005F93DCDE703821F411200AF49FCFA4CFD1
:1010A600903809F495CF01240894970B1BF4D4F3D8
:1010B6000020F3CF792F1F932F933F934F93112443
:1010C6001127222733274427552790E2AE17BF075B
:1010D6008607410730F0AE1BBF0B860B410B089409
:1010E60001C08894551F221F331F111CAA1FBB1F46
:1010F600881F441F9A9551F7F901612D4F913F9131
:101106002F911F91662332F0550FEE1FFF1F661FAA
:101116007A9543F27FDE5F91089599239AF07723BB
:1011260042F0971748F029F4AE17BF07860720F05C
:1011360031F0989488940895989408940895189492
:10114600889408957723C2F7971798F3A9F7EA17B3
:10115600FB07680788F399F3ECCF0024AF0DB01DA9
:101166000895F195E195F0400895F0956095709594
:10117600E195FF4F6F4F7F4F0895FE2FFF0FFF0B37
:101186006F2F7F2F08956F2F660F660B762F0895AA
:10119600ED91FC9111970895ED93FD936D937C93DA
:1011A60008950590F491E02D0895E881F9816A810A
:1011B6007B810895A881B9818A819B810895E883FE
:1011C600F9836A837B8308957A936A93FA93EA9301
:1011D60008959A938A93BA93AA930895182E862F00
:1011E600612D192E972F712D1B2EBF2FF12D1A2E23
:1011F600AE2FE12D08953097604070400895002489
:101206000A160B06080609060895EA17FB0768077B
:10121600790708955A934A933A932A931A930A930D
:1012260008955D814C813B812A8119810881089549
:00000001FF
