:0C00000097C0FECFFDCFFCCFFBCFFACFA6
:10000C00F9CFF8CFF7CFF6CFF5CF0DC1F3CFF2CFB5
:10001C00F1CFF0CFEFCFFCC1EDCF6400C800900161
:10002C002003F8FFFCFFFEFFFFFF000000000000B4
:10003C004C43442049324320494E495400494E54C4
:10004C003A200042756666312D62756666323D2037
:10005C002578202D20257820202D202578202D2056
:10006C002578202D2025780D0A0072785F77725F35
:10007C00696E6465783D202578200D0A00636C65F7
:10008C0061722072785F77725F696E64657820693F
:10009C006E746572727570200D0A005246343333DB
:1000AC00006E68696574646F3A2000004932432021
:1000BC00494E4954204D41535445523A00526570B3
:1000CC006561746564205374617274204578652E83
:1000DC00000007002D4E414E000001002D4E414EF8
:1000EC0000494E46000001000200360004000400E6
:1000FC0038000D0060013C0006006D01490006004F
:10010C007301A7000A007901AD0011008301B8004A
:10011C0014009401C9000100AA01DE000100C50110
:10012C00E6000000F894EE27ECBBF1E0FBBFEBBF60
:10013C00E5BF8DE0A2E0BB27ED938A95E9F780E05F
:10014C0094E0A0E6ED930197E9F7E2EFF0E08591FA
:10015C009591009761F0A591B59105901590BF010F
:10016C00F00105900D920197E1F7FB01F0CFEFE55F
:10017C00EDBFE4E0EEBFC0E6D1E0AFC0AA930DD175
:10018C00A0E415D1A8811DD126D1DCC3AA931A9362
:10019C0010E0EFE05E22E981E07F1E2F79D7E98144
:1001AC00EF70E295E07F1E2FEFE05E2271D7188191
:1001BC002DC1AA93E8E05E2EEEEF5E2279D7C2C382
:1001CC00AA93E9E05E2A74D7BDC376D778D7EC91B1
:1001DC00E03019F077D7F4DFF9CF18C1A1E021C0D6
:1001EC00E4E05E2EA52DCADF83E48A95F1F7A3E047
:1001FC00E0DFA3E0DEDFA3E0DCDFA2E0DADFA8E2F1
:10020C00D8DFAFE0D6DFA1E0D4DFA6E0D2DFA0E8F4
:10021C00D0DFA0E6B1E0D9DFA8EEB3E0C1D8DEDFD5
:10022C00A0E8C7DF08950A921A92FA926A937A9319
:10023C008A939A93AA93BA93EA93FA93EFB7EA93B1
:10024C009DDB1BB10CB1ADE6B1E0D8D0E12FEC7168
:10025C00A1F5E42D4394F0E0EC54FE4F0083EFE461
:10026C00F0E036D7E091B40136D7E091B50133D741
:10027C00E091B60130D7E091B7012DD7E091B801EC
:10028C002AD784E1C5D56696E6E7F0E021D7E42DC0
:10029C0022D784E0BDD52696E5E0E41539F4442454
:1002AC00E9E8F0E015D780E0B3D522966394E5E059
:1002BC00E61519F46624689420F809911991E991CE
:1002CC00EFBFF991E991B991A9919991899179919E
:1002DC006991F99019900990189502D7E0E0EA839A
:1002EC00EB83E4BBE5BB32D07BDFA3E7B1E06DDF92
:1002FC0061D8E0E0F0E0ECD6E0E0EA93EA93A1E02C
:10030C00E6D57894A091B401A136F1F4A0EC51DFBC
:10031C00A4EFB1E045D8A0EC4CDFA9E7B1E055DF84
:10032C00A091B5014DDFA091B6014ADFAEE248DFE6
:10033C00A091B70145DFA091B801A53629F4E0E002
:10034C00E093B401E093B801DDCFFFCFE0E3E4BB71
:10035C00E5BB44D0A3E8B1E051D0ADE049D0E6B75D
:10036C00EB7FE6BFE0E0F0E060E870E4DDDAE1B9F5
:10037C00BCD6C0D6B2D2A0E0B0E080E090E493D975
:10038C00A0E0B0E080E890E4DCD9CAD8E0B9E4E0C1
:10039C00E6BF8BE18A95F1F708951A93E4EAE6BF7C
:1003AC00ACD6F1F3AAD6F1F3ABD619910895ACD62D
:1003BC00A4D6F1F3A5D6183211F4188127C01881F0
:1003CC0025C0A2D69AD6F1F39BD6183211F4188117
:1003DC001DC018811BC0E4E9E6BF0895E0E0E0BD54
:1003EC00E3E3E9B9E9B9E6E8E0BDE8E9EAB908957B
:1003FC00AA935D9BFECFE881ECB9A4C25DD65FD613
:10040C00EC91E03019F05ED6F3DFF9CF2296089527
:10041C000A921A92FA926A937A938A939A93AA936B
:10042C00BA93EA93FA93EFB7EA93A4DA1091A9017D
:10043C000091A8013091BC012091AA01E12FA0915B
:10044C00BD01B091BE01F0E0EA0FFB1FAF01E1B1BD
:10045C00E87FE83011F420E002C0E03119F4E091BB
:10046C00B90110C0E83111F0E83221F5031780F41E
:10047C00E02F0F5FA091BA01B091BB01F0E0AE0F7D
:10048C00BF1FEC91E3B9E6B7EF70E068E6BF11C0AF
:10049C00E091BF011E1760F4E091B901E160E093B7
:1004AC00B901E89421F8E6B7EF70E06AE6BFFBC04B
:1004BC0033C0F9C0E03529F4E3B1DA01EC931F5FE6
:1004CC0002C0E03471F4E091BF01E1501E1720F03E
:1004DC00E6B7EF70E06803C0E6B7EF70E06CE6BF1C
:1004EC00E2C0E83529F4E3B1DA01EC931F5F02C0F6
:1004FC00E03209F402C0E03309F402C0E83469F4D4
:10050C00203051F421FE03C0031728F005C0E09100
:10051C00BF011E1708F424E0C0C0E83329F422E020
:10052C00E6B7EF70E068BCC0E83611F0E83711F4BC
:10053C0022E005C0E03611F0E03791F420E010E045
:10054C00E89421F8E091C001E03029F421E0E6B70D
:10055C00EF70E06803C0E6B7EF70E06CE6BFA3C0D5
:10056C00E03811F0E03929F521FE02C021E095C0F8
:10057C00E3B1DA01EC931F5FE091C0011E17B0F4F8
:10058C00E091C101F091C201309711F426E085C0D1
:10059C00A0E0E091C101F091C2010995E03029F091
:1005AC00E6B7EF70E06CE6BF7EC002C0689421F83D
:1005BC0002C0E83809F402C0E83929F4E6B7EF7054
:1005CC00E068E6BF70C0E03AA9F4E6B7EF70E06C03
:1005DC00E6BF689422F8E091C101F091C201309716
:1005EC0039F0A1E0E091C101F091C201099501C07F
:1005FC0026E059C0E03B11F422E002C0E83AB9F41D
:10060C00E091C301F091C401309759F0A0E0E09162
:10061C00C301F091C40109953E2FE03011F020E0A8
:10062C0002C026E03AC000E0E89421F802C0E83BA2
:10063C00E1F421FE02C021E030C0E02F0F5FA09159
:10064C00BA01B091BB01F0E0AE0FBF1FEC91E3B962
:10065C00031720F4E6B7EF70E06C05C0689421F83E
:10066C00E6B7EF70E068E6BF1EC0E03C11F0E83C76
:10067C0089F4E6B7EF70E06CE6BFE091C301F0914E
:10068C00C401309731F0A1E0E091C301F091C401B5
:10069C00099507C0E03039F423E0E6B7EF70E06D60
:1006AC00E6BF689422F81093A9010093A801209347
:1006BC00AA013093BC0165D92696E991EFBFF99157
:1006CC00E991B991A9919991899179916991F9904F
:1006DC001990099018952DD97B816A81F981E8814F
:1006EC0077FB770F67FD7160972F9E5781F078F03D
:1006FC00983190F4AA27BB27882708948795B7953B
:10070C00A7959A95D1F7EA23FB23682305C0E894B3
:10071C007727EE27FF2766276F77769508F46068B2
:10072C0077F9A991B99189919991EA17FB07680713
:10073C00790797FB0895FDD8EDD8CDDFF0D811F4EB
:10074C00EAD403C0EEF7E7D4E8D424960895F1D8A0
:10075C00249714D9E8D403D92CF0EFEFFFEF6FE70F
:10076C007FEF56C0E5D4E0D8ADB7BEB711971F9355
:10077C000F9386D60F911F91E0D4D5D4E3EFF4E01C
:10078C0065E37FE323D830F4D3D4CDD43CD7D5D490
:10079C0001501040CDD4C1D47F936F93FF93EF934E
:1007AC00C7D4A0E0B0E080E89FE32DD7AF91BF9114
:1007BC008F919F91C6D7C6D4A6E2B2E485E69FE39B
:1007CC0072D798D4EEE4F1E164E570E4C4D4ABD410
:1007DC006AD77F936F93FF93EF93C0D4ADE4B1E1ED
:1007EC0084ED9FE309D7AF91BF918F919F91A9D7CA
:1007FC007F936F93FF93EF93F801B5D4A8E1B2E721
:10080C0081E39FE350D7AF91BF918F919F91FBD61E
:10081C00BCD82A9608958DD82897B0D8A7D4E0E5EF
:10082C00FCEA6EEA72ECD2D710F4A5D453C0A8D46B
:10083C0092D811F4AAD44EC099D4E8E1F2E761EB56
:10084C0072E4C4D709F008F405C0EFEFFFEF6FE7CF
:10085C007FE740C08BD4EBE3FAEA68EB7FE323D766
:10086C0099D484D468DF5ED68F0180D47CD473D4C1
:10087C0041D4E0E0F0E060E07FE36DD463D4ADE61A
:10088C00BCE48CE69DE30FD7A6EAB3EE86EE90E4CB
:10089C00BAD649D408D751D461D4A8E2BDE886EAC7
:1008AC0091E4B1D67CD444D47FD4ADD6A3EFB4E0DC
:1008BC0085EB9FE3F8D67F936F93FF93EF9333D43D
:1008CC004DD49AD6AF91BF918F919F913AD72CD896
:1008DC00D801E7D55AD82E9608952BD8249769D4E9
:1008EC003AD811F448D427C069D439D844F46BD41D
:1008FC0032D811F44AD41FC061D46AD41CC063D45A
:10090C00DE0110D6FDD707D444D6DF01CB015BD472
:10091C002CD811F030D40FC04CD4CFD5EBD358D445
:10092C00E887F9876A877B87E881E17011F441D405
:10093C0002C03FD4C2D52C960895AA935D9BFECFDE
:10094C00E881ECB921960895B7D3AA81F6DFB7D325
:10095C0047D499C2B1D3C4D3E0E8EA83EFE3EB8385
:10096C000BD8EE85FF85EF3FAFEFFA0739F4E8853A
:10097C00F985AED3A0EEB0E0E7D277C0EF3FAFE79A
:10098C00FA0731F433D4A4D3A1EEB0E0DDD26DC0BC
:10099C00AB85A73010F0E6E0EB871B852AD411F06D
:1009AC002CD4FCCF38D4D7D719F430E026D41BC0C4
:1009BC003B8536D409F008F407C01FD431D418F0A5
:1009CC0036D43AD4FBCF08C02BD428F430D43FD43F
:1009DC0044D43150F9CF11D41ED444D43ED420D4B5
:1009EC0010F025D429D410E0EB85E117F0F040D4B9
:1009FC0044D438D47FD39FDEEC83FD836E837F8316
:100A0C00E2D315D49ED68CD50E2F3DD443D46DD3C2
:100A1C002FD449D60CD49FD320D4E12F1F5FE030C4
:100A2C0019F731D4EEE2EC93DFCF39D43197AA85A4
:100A3C00A08330302CF43195A885B985EDE203C044
:100A4C00A885B985EBE2EC932AD429D42DD408D708
:100A5C00E05DDB01EC9323D427D42CD7E05DDB01E4
:100A6C00EC93A885B985E0E0EC938DD7609608955A
:100A7C0023D3EF9761977ED710E0FE01E85AFF4F22
:100A8C000190F081E02DE887F987FE01EA5AFF4FCB
:100A9C000190F081E02DEE83FF830BD4E0E0F0E0D9
:100AAC00ED93FC93DE01A45ABF4F9AD33197E49196
:100ABC002E2FE03009F4A6C1E12FE03031F42532BD
:100ACC0011F411E001C0F8D39CC1E130B9F4253226
:100ADC0011F4F2D395C112E0E0E0ED8B00E02D3281
:100AEC0011F401E08EC12B3219F4EBE2ED8B89C1CC
:100AFC00203219F4E0E2ED8B84C102C0E23039F40B
:100B0C0050E013E0203311F400687BC102C0E330E5
:100B1C0091F4203310F02A3308F007C0AAE05A9F52
:100B2C00502DE22FE0535E0F6CC140E02E3211F4D9
:100B3C0014E067C10FC0E43099F4203310F02A336D
:100B4C0008F008C00062AAE04A9F402DE22FE05353
:100B5C004E0F57C12C3619F4026015E052C103C078
:100B6C00E53009F04EC1E22FE33639F4ACD3B2D301
:100B7C00AAD3A481AA93B5D343C1E53411F0E536C9
:100B8C0009F402C0E636A9F5B2D3B6D3B3D602D374
:100B9C00BAD3AD85AA2332F0AD89AB3241F0A03285
:100BAC0061F012C0EDD289D4F5D2EDE2ED8B07FFE6
:100BBC0004C0ED89EA9395D307C0EE85FF85319685
:100BCC00A4D33197AD89A08305FF46E0263639F4CE
:100BDC00D7D2AAD64A93AB89BC89D9D107C0D0D277
:100BEC00A3D64A932A93AC89BD89B4DE80D390D323
:100BFC0016C0E33721F487D390D38AD309C0E037EA
:100C0C0099F481D38AD3AE85BF85B5D11E2F0860E8
:100C1C000F77403011F0411708F001C0142F40E05D
:100C2C00E0E0EC8B30E062C0E43611F0E93611F410
:100C3C00046002C0E53791F4EAE0EC8B01FF07C0D9
:100C4C00E0E0FAEC6AE97BE36CD31AE01FC0E0E168
:100C5C00F7E260E070E065D315E018C0E83511F4F8
:100C6C00086003C0E83709F0CBC0E0E1EC8B01FF72
:100C7C0007C0E0E0F0E060E070E153D318E006C09C
:100C8C00E0E0F0E160E070E04CD314E0403011F0B3
:100C9C000F7701C041E001FF05C035D32DD3149669
:100CAC0029D60EC002FF06C02ED326D314961ED60C
:100CBC00BFD506C028D320D3149618D6662777271D
:100CCC00EA87FB876C877D8702FF0FC0AD85AA235F
:100CDC002AF456D29FD55ED2EDE2ED8BED89E03051
:100CEC0019F01F5F4F5F01C00B7F342F00FD13C045
:100CFC00151710F4351708F00EC007FF08C002FFD7
:100D0C0004C00B7F2D89115001C020E301C020E2EB
:100D1C00D3D25150EDCF141780F4006102FF05C0FF
:100D2C0005D309F0515011504150E0E3EA93D9D268
:100D3C00503009F051504150EECF312FEC89E0305A
:100D4C00A9F4303091F003FF05C0EE85FF852591A5
:100D5C00DCD205C0AE85BF852D91AE87BF87ACD2E6
:100D6C00503009F051503150ECCF41C0F1D27DD50B
:100D7C002E2F2A3030F003FF02C0295C01C0295A03
:100D8C0001C0205D04FD1DC0213348F4E6D2A13022
:100D9C00E0E0BE07E0E08E07E0E09E0709F40BC040
:100DAC00431740F4531710F000FF01C00EC020E2AF
:100DBC0007FF07C020E3006102FF03C0B7D209F0B0
:100DCC0051507AD2503009F051503150C1D27ED5A9
:100DDC00E1D1EC89C2D2FF276627772746D5A1D26D
:100DEC00E889F9896A897B89B6D509F0BFCF00FFFC
:100DFC0007C0503029F05150E0E2EA9372D2F9CF9B
:100E0C0010E050CE56D272D5BCD5EF966F960895A1
:100E1C00FF92F82E2697B2D5DE011496F7D48D01E9
:100E2C00E0E0EC83ED83EE83EF83DE011896EED4E5
:100E3C005DD54ED11A930A93EAEAF4E049D1DE016A
:100E4C00189616DEA2D52896FF90089535D11A93E0
:100E5C00B1D2E03011F4E0E015C0E981FA813097AD
:100E6C0071F0A5E5EDD210E0A981BA81ED91A983CD
:100E7C00BA83AE2FE5D21F5F1830B0F302C0ACECD2
:100E8C00DFD2E1E018812396089516D175D5AC8197
:100E9C00BD81DCDFE03011F4E0E016C0AEEBD0D267
:100EAC0010E02BEA31E03F932F932F5F3F4FC3D2DB
:100EBC00AF91BF91EC931F5F1930A8F3EBEAF1E00F
:100ECC0007D1A9E0C7D2B9D45ED526960895AA93C6
:100EDC00AB81BC81BBDFE03011F4E0E033C0E881D2
:100EEC00E295E07FEE0FEF61E883AEE4A9D2A98131
:100EFC00A7D2AA81A5D2A881A3D2AB81BC81C5DF20
:100F0C00E03011F4E0E01EC0A091AE01EA81EA17D6
:100F1C0051F4A091AD01E981EA1729F4A091AF0138
:100F2C00E881EA1711F0E0E00DC0AB81BC818EDFE7
:100F3C00E03011F4E0E006C0A8E482D2AFE0B0E00B
:100F4C002FD238D225960895B7D0E991F991A9916D
:100F5C00B991CD0105900D920020E1F7FC010895A7
:100F6C00ABD0A991B991EE27FF276D91662311F0B3
:100F7C003196FBCF0895A0D0AA27BB27E991F99110
:100F8C000590002011F01196FBCFFD01089594D02F
:100F9C00A7D0E0E0EA83EFE3EB83F0D4EB85FC85AC
:100FAC00EF3FAFEFFA0729F4DDD1A8EEB0E0CCDFCC
:100FBC006CC0EF3FAFE7FA0729F4D4D1A9EEB0E04B
:100FCC00C3DF63C0AC85AA2332F4CFD176D2D2D1A1
:100FDC00D6D1EDE2EC93A885A73010F0E6E0E887D7
:100FEC00188507D121F0E0D048D1D9D0FACFCDD196
:100FFC000AD3C0D110E0C9D0D2D0C7D1E7D360F0AA
:10100C00D3D025D1CCD01F5F173228F0ABD1ADEEA9
:10101C00B0E09ADF3AC0F1CF103021F4B0D1E0E368
:10102C00EC9316C0E6D0A1F0BFD027D11BD162D073
:10103C0082DBB5D0AAD185D373D20E2FA0D12AD101
:10104C00F0E0B2D090D02FD3A6D185D093D1EACFF7
:10105C00E885E030B1F093D1EEE2EC93E885E15015
:10106C00E887EF5F71F097D1F2D084D17ED158D25E
:10107C000E2F85D10FD1F0E08ED175D06CD07AD1F6
:10108C00EDCFAE81BF81E0E0EC937FD42D96089537
:10109C00512AE4E05E2AA52D71D883E08A95F1F7F8
:1010AC00EBEF5E22A52D6AD88DE08A95F1F70895B5
:1010BC00A52D64D8A8816AC8BA93AA930895A8816B
:1010CC00B9810895FCDFED91A883B983AE2F089503
:1010DC00FA93EA930895FF276627772725D4089576
:1010EC002497E0E0E883E9830895FF2766277727B4
:1010FC0050D20895DF01CB010895E6B7E07808954A
:10110C00E1B1E87F1E2F0895AA931A93E981E3B900
:10111C00E4E8E6BF0895F9D30895A0E0B0E080E8D4
:10112C009FE36AD20895AE81BF8188859985089521
:10113C00EE81FF81688579850895EE83FF8368874A
:10114C0079870895FADFF4DFEEDFADD2EA83FB8313
:10115C006C837D830895F2D34FD20895EA81FB818D
:10116C006C817D81089564D314D20895AA85BB85C2
:10117C008C859D850895E0E0F0E060E070E00895D6
:10118C00EA85FB856C857D850895E0E0F0E060E8FC
:10119C007FE30895EA87FB876C877D870895EA8350
:1011AC00FB836C837D830895AA81BB818C819D8197
:1011BC000895E885F9856A857B850895A885B985A4
:1011CC008A859B850895EC81FD816E817F810895D0
:1011DC00BEDAAC81BD818E819F8165D28BDF1BCB4A
:1011EC00ED91FD913196FE93EE930895E885F98586
:1011FC000895E12F1150E0300895AC81BD818E81AE
:10120C009F81E0E0F0E060E271E44DD2EC83FD837D
:10121C006E837F830895EC85FD856E857F850895AB
:10122C00D2DFAC85BD858E859F85D0D20895AC85E7
:10123C00BD858E859F850895EDECFCEC6CEC7DE313
:10124C0032D2EC87FD876E877F873F5F0895E0E0A1
:10125C00F0E060E271E427D20895EC87FD876E8799
:10126C007F870895A0E0B0E080E09FE3CCD10895A3
:10127C00AC81BD818E819F810895EDECFCEC6CEC12
:10128C007DE311D20895A885B9851196A887B987F1
:10129C0011970895E02FE05DEC93E02F0895A6DF01
:1012AC003196E887F98708953197BF01A32FEAE0BB
:1012BC000895AE81BF8108952A93AF81B885E985E1
:1012CC00FA8509950895FE01E65AFF4F0190F081C9
:1012DC00E02D08953497DE01A65ABF4FED93FC9391
:1012EC000895AF81B885E985FA8509950895FE01C1
:1012FC007696EE87FF870895DE01A65ABF4F0D90B4
:10130C00BC91A02D0895DFDFE5CFEE87FF87089510
:10131C00AE85BF8525DE1E2F0895EEDF1496E6D22E
:10132C00F4CFE88BF98B6A8B7B8B08950B7FED895F
:10133C00EA93DE01A95ABF4F0D90BC91A02DFE017E
:10134C00E75AFF4F0190F081E02D09955030089538
:10135C00E889F9896A897B8909CFA889B9898A8939
:10136C009B890895EE81FF81B3CEE985FA856B8563
:10137C007C850895E987FA876B877C87089599DFC8
:10138C001196AE83BF8311970895E8DEA985BA85BF
:10139C008B859C850895A985BA858B859C85089538
:1013AC00109639F080ED97E00197F1F7A895119719
:1013BC00C9F70895EE27A898A09A80EC93E00197BE
:1013CC00F1F7A09885E28A95F1F7989B08958BEC3C
:1013DC008A95F1F7989BE1E08CE093E00197F1F7A7
:1013EC000895A09A85E08A95F1F7A0988DE18A95E9
:1013FC00F1F7889498990894E79585ED8A95F1F71B
:10140C000895E894A09A85E08A95F1F770FDA0986C
:10141C0083E28A95F1F7989903C070FF03C0089591
:10142C0070FF089588EC8A95F1F7A0988DE08A9565
:10143C00F1F76894089568E0D4DF6A95E9F70895A8
:10144C007A2F68E0EE27DDDF26F477956A95D9F7D9
:10145C00E3950895EE27AA2389F08A2F68E1A881E5
:10146C00B98198E0FD917F2F7E27779508F4E627C8
:10147C00E795F6959A95B9F78A9599F72296089576
:10148C00E991F9916991799177FB660F771F88271C
:10149C007E57880B7D938C937EE7769567956EF0DF
:1014AC000895E991F9916991799177FB660F771F0E
:1014BC007A0F769567950EF00895309760407040DE
:1014CC0009F070580895552342F4503811F4E0FF98
:1014DC0004C03196691F791F6BF050E8572711F43F
:1014EC005F93CFC05F3F31F0660F000C5795679547
:1014FC00752F08955F9300200AF0CFC0C8C050E844
:10150C00192E1522880F991F9527550F879550E88E
:10151C00072E0522660F771F7527550F67950895BF
:10152C00689401C0E8945F93F2DF703818F07F3F45
:10153C0008F4A7C056E1571BAAF4519558300EF485
:10154C00593030F0EFEFFFEF6FEF7FE777F91AC00C
:10155C0077275523B9F0EE0FFF1F661F771F5A959B
:10156C00D1F710C07727583028F0EF2FF62F672FC0
:10157C005850F9CF552331F076956795F795E79547
:10158C005A95D1F700200AF445D15F9108956894DB
:10159C0001C0E894309760407040B1F0002426F010
:1015AC00772312F4009436D1172E7EE1112032F0FD
:1015BC007A95EE0FFF1F661F111CF9CFEF2FF62F38
:1015CC00612D5F938ADF5F9108954F93AF01FD0109
:1015DC00DA01AB01BC01CA01402D012C142E4F9134
:1015EC000895EA0FFB1F681F0895E095F09560952C
:1015FC00EF5FFF4F6F4F08955F9381DF903871F16C
:10160C0050E8152604C05F937ADF903839F17038B2
:10161C0021F1572F591B2BF112F4D7DFFACF583188
:10162C0018F0AA27BB278827583028F0AB2FB82FE3
:10163C0088275850F9CF552329F08695B795A7954B
:10164C005A95D9F7502D512572F0CBDF38F46795A8
:10165C00F795E795739513F420C0B7DF3EDF5F91E4
:10166C000895D8F7FBCFEA1BFB0B680B51F010F475
:10167C000094BBDF662392F3EE0FFF1F661F7A9573
:10168C00CBF7EE27FF27662777275F910895EFEFBB
:10169C00FFEF6FE77FEF5F910895EFEFFFEF6FE7DD
:1016AC007FE75F9108955F932ADF703851F390388C
:1016BC0041F301240894791F23F41CF300203AF31E
:1016CC00ECCF0F921F932F933F934F931127222709
:1016DC009927689FA0018F9F302D410D591F6B9F3B
:1016EC00300D411D591F8E9F27D0BF9F25D06A9F5B
:1016FC0023D0BE9F1DD0AF9F1BD0AE9F110D291FB5
:10170C00391F491F591FE32FF42F652F522F4F916B
:10171C003F912F911F910F9066232AF0550FEE1FCA
:10172C00FF1F661F02C073954BF2CDDE5F910895CB
:10173C00100D211D391F02C0200D311D491F591FCD
:10174C0008955F93DCDE703821F411200AF49FCFEA
:10175C00A4CF903809F495CF01240894970B1BF46F
:10176C00D4F30020F3CF792F1F932F933F934F93F4
:10177C0011241127222733274427552790E2AE172F
:10178C00BF078607410730F0AE1BBF0B860B410B22
:10179C00089401C08894551F221F331F111CAA1FC7
:1017AC00BB1F881F441F9A9551F7F901612D4F916A
:1017BC003F912F911F91662332F0550FEE1FFF1FA3
:1017CC00661F7A9543F27FDE5F91089599239AF014
:1017DC00772342F0971748F029F4AE17BF07860716
:1017EC0020F031F098948894089598940894089572
:1017FC001894889408957723C2F7971798F3A9F74C
:10180C00EA17FB07680788F399F3ECCF0024AF0DB8
:10181C00B01D0895F09560957095E195FF4F6F4F51
:10182C007F4F0895FE2FFF0FFF0B6F2F7F2F089513
:10183C006F2F660F660B762F0895EE23E1E009F00B
:10184C00EE270895002498E0AA0F001C0E1A10F43D
:10185C000E0E01C0A1609A95B9F7EA2FA02D08953C
:10186C0039D0F0DF0EF4E19508953F934F935F93D9
:10187C00002411244427552730E2AA0FBB1F881FD0
:10188C00991F001C111C441F551F0E1A1F0A460BD2
:10189C00570B28F40E0E1F1E461F571F01C0A160C8
:1018AC003A9559F7FD01BC01D001CA015F914F91E6
:1018BC003F910895E894A7FF02C0A1956894E7FDB5
:1018CC00E195C0DFEA2F0EF4E1950895CEDFFD011E
:1018DC00BC010895E894E7FF02C0E1956894A7FF66
:1018EC0004C0A19500F8039400FA0895ED91FC91C1
:1018FC0011970895ED91FD916D917C911397089539
:10190C00ED93FD936D937C930895E881F9816A8141
:10191C007B810895A881B9818A819B810895E88390
:10192C00F9836A837B8308957A936A93FA93EA9393
:10193C0008959A938A93BA93AA930895182E862F92
:10194C00612D192E972F712D1B2EBF2FF12D1A2EB5
:10195C00AE2FE12D0895309760407040089500241B
:10196C000A160B06080609060895EA17FB0768070E
:10197C00790708955A934A933A932A931A930A93A0
:10198C0008955D814C813B812A81198108810895DC
:00000001FF
