:0E0000007CC0FECFFDCFFCCFFBCFFACFF9CFF7
:10000E00F8CFF7CFF6CFF5CFF2C0F3CFF2CFF1CFD7
:10001E00F0CFEFCFCBC1EDCF1027E80364000A007D
:10002E00010000100001100001006400C8009001E2
:10003E002003F8FFFCFFFEFFFFFF000000000000A2
:10004E004C43442049324320494E495400494E54B2
:10005E004552525550002020202578202D202578FD
:10006E00200D0A005246343333006E6869657420E1
:10007E00646F3A200D0A006E6869657420646F2003
:10008E0054525559454E3A200D0A0000526570657E
:10009E0061746564205374617274204578652E0016
:1000AE00070001002D4E414E00494E460000010052
:1000BE0002004800040004004A000D0060014E00DA
:1000CE0009006D015B000600760172000D007C01D7
:1000DE00780014008901850014009D019A0001002A
:1000EE00B301AE0001000902B0000000F894EE2743
:1000FE00ECBBF1E0FBBFEBBFE5BF8DE0A2E0BB27A1
:10010E00ED938A95E9F780E094E0A0E6ED930197F0
:10011E00E9F7ECEBF0E085919591009761F0A591F0
:10012E00B59105901590BF01F00105900D920197C4
:10013E00E1F7FB01F0CFEFE5EDBFE4E0EEBFC0E687
:10014E00D1E099C0AA93F7D0A0E4FFD0A88107D13F
:10015E0010D1D7C3AA931A9310E0EFE05E22E98183
:10016E00E07F1E2F29D5E981EF70E295E07F1E2FEB
:10017E00EFE05E2221D5188117C1AA93E8E05E2E2A
:10018E00EEEF5E2229D5BDC3AA93E9E05E2A24D5FF
:10019E00B8C326D528D5EC91E03019F027D5F4DF79
:1001AE00F9CF02C1A1E021C0E4E05E2EA52DCADF89
:1001BE0083E48A95F1F7A3E0E0DFA3E0DEDFA3E0BE
:1001CE00DCDFA2E0DADFA8E2D8DFAFE0D6DFA1E025
:1001DE00D4DFA6E0D2DFA0E8D0DFA0E6B1E0D9DF21
:1001EE00A8EEB3E093D5DEDFA0E8C7DF08950A924C
:1001FE001A92FA926A937A938A939A93AA93BA93DB
:10020E00EA93FA93EFB7EA93C9D71BB10CB1ADE6F7
:10021E00B1E0C2D0E4E6F0E0FA93EA93E091BD01DA
:10022E00EBD4E091BE01E8D488E08FD42A96E12F7A
:10023E00EC7189F4E42D4394F0E0E354FE4F008317
:10024E00E0E4E41509F444246394E0E4E61519F4BB
:10025E006624689420F809911991E991EFBFF991FC
:10026E00E991B991A9919991899179916991F990B1
:10027E00199009901895E0E0E4BBE5BB35D094DF0A
:10028E00A6E7B1E086DF4CD57894A0EC76DFACE73C
:10029E00B1E07FDFA091BD01AA32A1F4A0EC6DDF29
:1002AE00A9E8B1E076DFA091BF01A05D6DDFA0915E
:1002BE00C001A05D69DFAEE267DFA091C101A05D64
:1002CE0063DF10C0A091BD01AA3261F04424E0E0CA
:1002DE00E093BD01E093BE01E093BF01E093C00146
:1002EE00E093C101D7CFFFCFE0E3E4BBE5BB44D041
:1002FE00ADE04CD0E6B7EB7FE6BFE0E0F0E060E8C3
:10030E0070E422D7E1B9FF2766277727A9D579D4DC
:10031E00C3D2A0E0B0E080E090E42CD6A0E0B0E044
:10032E0080E890E475D663D5E0B9E4E0E6BF8BE1F2
:10033E008A95F1F708951A93E4EAE6BF65D4F1F3CE
:10034E0063D4F1F364D41991089565D45DD4F1F3B7
:10035E005ED4183211F4188127C0188125C05BD4E1
:10036E0053D4F1F354D4183211F418811DC01881EE
:10037E001BC0E4E9E6BF0895E0E0E0BDE3E3E9B9C0
:10038E00E9B9E6E8E0BDE8E9EAB90895AA935D9B0C
:10039E00FECFE881ECB9B5C223D425D4EC91E03080
:1003AE0019F024D4F3DFF9CF229608950A921A9207
:1003BE00FA926A937A938A939A93AA93BA93EA9348
:1003CE00FA93EFB7EA93E6D61091B2010091B1011C
:1003DE00309100022091B301E12FA0910102B09162
:1003EE000202F0E0EA0FFB1FAF01E1B1E87FE83057
:1003FE0011F420E002C0E03119F4E091FD0110C0CB
:10040E00E83111F0E83221F5031780F4E02F0F5F89
:10041E00A091FE01B091FF01F0E0AE0FBF1FEC9175
:10042E00E3B9E6B7EF70E068E6BF11C0E0910302F2
:10043E001E1760F4E091FD01E160E093FD01E89488
:10044E0021F8E6B7EF70E06AE6BFFBC033C0F9C033
:10045E00E03529F4E3B1DA01EC931F5F02C0E0341A
:10046E0071F4E0910302E1501E1720F0E6B7EF7031
:10047E00E06803C0E6B7EF70E06CE6BFE2C0E835B7
:10048E0029F4E3B1DA01EC931F5F02C0E03209F404
:10049E0002C0E03309F402C0E83469F4203051F4AC
:1004AE0021FE03C0031728F005C0E09103021E17BA
:1004BE0008F424E0C0C0E83329F422E0E6B7EF7078
:1004CE00E068BCC0E83611F0E83711F422E005C050
:1004DE00E03611F0E03791F420E010E0E89421F8D6
:1004EE00E0910402E03029F421E0E6B7EF70E06815
:1004FE0003C0E6B7EF70E06CE6BFA3C0E03811F0C2
:10050E00E03929F521FE02C021E095C0E3B1DA0100
:10051E00EC931F5FE09104021E17B0F4E091050208
:10052E00F0910602309711F426E085C0A0E0E0912C
:10053E000502F09106020995E03029F0E6B7EF705A
:10054E00E06CE6BF7EC002C0689421F802C0E838B5
:10055E0009F402C0E83929F4E6B7EF70E068E6BFA7
:10056E0070C0E03AA9F4E6B7EF70E06CE6BF6894AD
:10057E0022F8E0910502F0910602309739F0A1E0E1
:10058E00E0910502F0910602099501C026E059C0DE
:10059E00E03B11F422E002C0E83AB9F4E091070220
:1005AE00F0910802309759F0A0E0E0910702F09127
:1005BE00080209953E2FE03011F020E002C026E03F
:1005CE003AC000E0E89421F802C0E83BE1F421FED5
:1005DE0002C021E030C0E02F0F5FA091FE01B0916C
:1005EE00FF01F0E0AE0FBF1FEC91E3B9031720F44B
:1005FE00E6B7EF70E06C05C0689421F8E6B7EF70CF
:10060E00E068E6BF1EC0E03C11F0E83C89F4E6B7B6
:10061E00EF70E06CE6BFE0910702F09108023097B0
:10062E0031F0A1E0E0910702F0910802099507C0B0
:10063E00E03039F423E0E6B7EF70E06DE6BF689482
:10064E0022F81093B2010093B1012093B3013093BD
:10065E000002A7D52696E991EFBFF991E991B991DC
:10066E00A9919991899179916991F990199009902F
:10067E0018956FD57B816A81F981E88177FB770FB9
:10068E0067FD7160972F9E5781F078F0983190F446
:10069E00AA27BB27882708948795B795A7959A957B
:1006AE00D1F7EA23FB23682305C0E8947727EE27CA
:1006BE00FF2766276F77769508F4606877F9A9911A
:1006CE00B99189919991EA17FB076807790797FB0A
:1006DE0008953FD52FD5CDDF32D511F4A3D203C067
:1006EE00EEF7A0D2A1D22496089533D5249756D5ED
:1006FE00A1D245D52CF0EFEFFFEF6FE77FEF58C09B
:10070E009ED222D5ADB7BEB711971F930F931FD3AD
:10071E000F911F9199D28ED2E3EFF4E065E37FE360
:10072E00BCD430F48CD286D2D5D38ED201501040A8
:10073E0086D27AD27F936F93FF93EF9380D2A0E00D
:10074E00B0E080E89FE3C6D3AF91BF918F919F91A8
:10075E005FD47FD2A6E2B2E485E69FE30BD451D2FA
:10076E00EEE4F1E164E570E4F9D4ADD363D202D4E2
:10077E007F936F93FF93EF9375D2ADE4B1E184ED68
:10078E009FE3A1D3AF91BF918F919F9141D47F935E
:10079E006F93FF93EF93F801B6D462D3A8E1B2E75B
:1007AE0081E39FE3E7D3AF91BF918F919F9192D356
:1007BE00FCD42A960895CDD42897F0D458D2E0E5EB
:1007CE00FCEA6EEA72EC69D410F456D262C0EA8585
:1007DE00FB856C857D85CFD411F453D25AC047D298
:1007EE00E8E1F2E761EB72E458D409F008F405C0D1
:1007FE00EFEFFFEF6FE77FE74CC039D2EBE3FAEA9A
:10080E0068EB7FE3B7D3EA87FB876C877D872FD2B0
:10081E0060DFEFD28F012BD276D422D39FD453D365
:10082E00F0D1E0E0F0E060E07FE398D44CD311D259
:10083E00ADE6BCE48CE69DE39DD3A6EAB3EE86EE70
:10084E0090E448D3F7D196D3FFD10CD2A8E2BDE8FD
:10085E0086EA91E43FD3EA83FB836C837D83EFD1F9
:10086E00AA81BB818C819D8135D3A3EFB4E085EB4A
:10087E009FE380D37F936F93FF93EF93DBD1F2D1FE
:10088E0022D3AF91BF918F919F91C2D35DD4D801E6
:10089E006FD28BD42E9608955CD42497F7D16BD457
:1008AE0011F4EAD127C0F7D16AD444F4F9D163D454
:1008BE0011F4E7D11FC0EFD1F8D11CC0F1D1DE0188
:1008CE0098D22AD4AFD1CCD2DF01CB01E9D15DD4FD
:1008DE0011F0D2D10FC0DAD157D293D1E6D1E88739
:1008EE00F9876A877B87E881E17011F4CFD102C066
:1008FE00CDD14AD22C960895AA935D9BFECFE88166
:10090E00ECB9219608956CD1AA81F6DF6CD1ED91E8
:10091E00FD913196FE93EE932396089561D126971D
:10092E0039D410E0AC85BD85E0E0F0E0ED93FC93AA
:10093E00EA89FB893196EA8BFB8B3197E4912E2F56
:10094E00E03009F4FCC0E12FE03031F4253211F42F
:10095E0011E001C0B2D1F2C0E130A1F4253211F4A0
:10096E00ACD1EBC012E040E000E02D3211F401E01A
:10097E00E5C02B3211F44BE2E1C0203211F440E21B
:10098E00DDC002C0E23039F450E013E0203311F440
:10099E000068D4C003C0E33009F0D0C0203310F09B
:1009AE002A3308F007C0AAE05A9F502DE22FE053D9
:1009BE005E0FC4C0E22FE33639F486D188D184D1DC
:1009CE00A481AA9388D1B9C0E33729F48AD18BD1F7
:1009DE00DCD01E2F07C0E03749F483D184D1E0D09C
:1009EE001E2F086002600F7730E02DC0E43611F044
:1009FE00E93611F4046002C0E53729F4E6E2F0E0CE
:100A0E007BD115E00BC0E83511F4086003C0E83760
:100A1E0009F093C0E0E3F0E06FD114E002FF11C0E3
:100A2E0060D16DD1AB85AA2332F4EA85FB8559D30B
:100A3E00EA87FB874DE2403011F01F5F01C00B7F4C
:100A4E0002C04FD15CD100FD10C0151770F407FF26
:100A5E0008C002FF04C00B7F242F115001C020E3F9
:100A6E0001C020E22AD15150F0CF312F01FF15C025
:100A7E00303091F003FF05C0EE81FF8125913CD10E
:100A8E0005C0AE81BF812D91AE83BF8316D150308C
:100A9E0009F051503150ECCF47C020E3EE81FF8179
:100AAE0040D3E887F987EE81FF81329625D1E8851C
:100ABE00F985AA85BB85AE17BF0750F02F5FA885B5
:100ACE00B985EA85FB85EA1BFB0BEA87FB87EFCF2F
:100ADE002A3328F003FF02C0295F01C0295D04FDFF
:100AEE0019C0213320F4A885B985119709F409C0DE
:100AFE00531710F000FF01C011C020E207FF0AC01B
:100B0E0020E3006102FF06C00B7F4A93E4D0503011
:100B1E0009F05150D2D0503009F051503150A885C3
:100B2E00B985129708F0B9CF00FF07C0503029F0F1
:100B3E005150E0E2EA93CFD0F9CF10E0F9CEAC8578
:100B4E00BD85E6D22ED364960895FF92F82E269791
:100B5E0025D3DE011496C1D28D01E0E0EC83ED8346
:100B6E00EE83EF83DE011896B8D2D2D2FA93EA93CF
:100B7E001A930A93EAE8F4E0FA93EA93DE011896E0
:100B8E00CDDE13D32896FF9008952AD0A991B9915E
:100B9E00EE27FF276D91662311F03196FBCF089556
:100BAE001FD0AA27BB27E991F9910590002011F0DB
:100BBE001196FBCFFD010895512AE4E05E2AA52D82
:100BCE00C1DA83E08A95F1F7EBEF5E22A52DBADA52
:100BDE008DE08A95F1F70895A52DB4DAA881BACAE9
:100BEE00BA93AA930895A881B9810895FCDFED9177
:100BFE00A883B983AE2F0895FF2766277727A4D23F
:100C0E000895DF01CB010895E6B7E0780895E1B1CC
:100C1E00E87F1E2F0895AA931A93E981E3B9E4E8B9
:100C2E00E6BF089582D20895A0E0B0E080E89FE389
:100C3E004AD10895AE81BF81888599850895EE8148
:100C4E00FF81688579850895EE83FF8368877987AC
:100C5E000895FADFF4DFEEDF8DD1EA83FB836C8338
:100C6E007D830895EA81FB816C817D810895AA853B
:100C7E00BB858C859D850895E0E0F0E060E070E036
:100C8E000895E0E0F0E060E87FE30895E885F985F7
:100C9E006A857B850895A885B9858A859B85089583
:100CAE00EC81FD816E817F8108951FDDAC81BD8158
:100CBE008E819F815FD1A5DF7ECD2A93AD85BE85C6
:100CCE00EF85F88909950895E889F989089534978B
:100CDE00E88BF98B0895AD85BE85EF85F88909956A
:100CEE000895F2DFF4CFA889B989149611D2EE8354
:100CFE00FF83AE81BF810895EE83FF830895A88997
:100D0E00B989149605D2EA87FB870895109639F0B3
:100D1E0080ED97E00197F1F7A8951197C9F708951F
:100D2E00EE27A898A09A80EC93E00197F1F7A0988F
:100D3E0085E28A95F1F7989B08958BEC8A95F1F7E9
:100D4E00989BE1E08CE093E00197F1F70895E9912B
:100D5E00F9916991799177FB660F771F88277E57F6
:100D6E00880B7D938C937EE7769567956EF008954C
:100D7E00E991F9916991799177FB660F771F7A0F57
:100D8E00769567950EF0089530976040704009F0A3
:100D9E0070580895552342F4503811F4E0FF04C002
:100DAE003196691F791F6BF050E8572711F45F9346
:100DBE00CFC05F3F31F0660F000C57956795752FCA
:100DCE0008955F9300200AF0CFC0C8C050E8192ED6
:100DDE001522880F991F9527550F879550E8072ED6
:100DEE000522660F771F7527550F6795089568942E
:100DFE0001C0E8945F93F2DF703818F07F3F08F47B
:100E0E00A7C056E1571BAAF4519558300EF459302D
:100E1E0030F0EFEFFFEF6FEF7FE777F91AC077272C
:100E2E005523B9F0EE0FFF1F661F771F5A95D1F7A6
:100E3E0010C07727583028F0EF2FF62F672F585015
:100E4E00F9CF552331F076956795F795E7955A9535
:100E5E00D1F700200AF449D15F910895689401C03A
:100E6E00E894309760407040B1F0002426F077236C
:100E7E0012F400943AD1172E7EE1112032F07A95B9
:100E8E00EE0FFF1F661F111CF9CFEF2FF62F612DEE
:100E9E005F938ADF5F9108954F93AF01FD01DA01F1
:100EAE00AB01BC01CA01402D012C142E4F910895A7
:100EBE00EA0FFB1F681F0895E095F0956095EF5FB0
:100ECE00FF4F6F4F08955F9381DF903871F150E8B7
:100EDE00152604C05F937ADF903839F1703821F10E
:100EEE00572F591B2BF112F4D7DFFACF583118F0C8
:100EFE00AA27BB278827583028F0AB2FB82F882772
:100F0E005850F9CF552329F08695B795A7955A9540
:100F1E00D9F7502D512572F0CBDF38F46795F79540
:100F2E00E795739513F420C0B7DF3EDF5F91089508
:100F3E00D8F7FBCFEA1BFB0B680B51F010F40094B3
:100F4E00BBDF662392F3EE0FFF1F661F7A95CBF77A
:100F5E00EE27FF27662777275F910895EFEFFFEFC4
:100F6E006FE77FEF5F910895EFEFFFEF6FE77FE79A
:100F7E005F9108955F932ADF703851F3903841F3F3
:100F8E0001240894791F23F41CF300203AF3ECCFCC
:100F9E000F921F932F933F934F9311272227992739
:100FAE00689FA0018F9F302D410D591F6B9F300DF3
:100FBE00411D591F8E9F27D0BF9F25D06A9F23D0DA
:100FCE00BE9F1DD0AF9F1BD0AE9F110D291F391F85
:100FDE00491F591FE32FF42F652F522F4F913F9129
:100FEE002F911F910F9066232AF0550FEE1FFF1FB2
:100FFE00661F02C073954BF2CDDE5F910895100D02
:10100E00211D391F02C0200D311D491F591F089582
:10101E005F93DCDE703821F411200AF49FCFA4CF49
:10102E00903809F495CF01240894970B1BF4D4F350
:10103E000020F3CF792F1F932F933F934F931124BB
:10104E001127222733274427552790E2AE17BF07D3
:10105E008607410730F0AE1BBF0B860B410B089481
:10106E0001C08894551F221F331F111CAA1FBB1FBE
:10107E00881F441F9A9551F7F901612D4F913F91A9
:10108E002F911F91662332F0550FEE1FFF1F661F23
:10109E007A9543F27FDE5F91089599239AF0772334
:1010AE0042F0971748F029F4AE17BF07860720F0D5
:1010BE0031F098948894089598940894089518940B
:1010CE00889408957723C2F7971798F3A9F7EA172C
:1010DE00FB07680788F399F3ECCF0024AF0DB01D22
:1010EE000895F195E195F0400895F095609570950D
:1010FE00E195FF4F6F4F7F4F0895FE2FFF0FFF0BB0
:10110E006F2F7F2F08956F2F660F660B762F089522
:10111E00ED91FC9111970895ED93FD936D937C9352
:10112E0008950590F491E02D0895E881F9816A8182
:10113E007B810895A881B9818A819B810895E88376
:10114E00F9836A837B8308957A936A93FA93EA9379
:10115E0008959A938A93BA93AA930895182E862F78
:10116E00612D192E972F712D1B2EBF2FF12D1A2E9B
:10117E00AE2FE12D08953097604070400895002401
:10118E000A160B06080609060895EA17FB076807F4
:10119E00790708955A934A933A932A931A930A9386
:1011AE0008955D814C813B812A81198108810895C2
:00000001FF
