:0800000092C0FECFFDCFFCCF42
:10000800FBCFFACFF9CFF8CFF7CFF6CFF5CFF4CFB4
:10001800F3CFF2CFF1CFF0CFEFCF44C1EDCF6400F3
:10002800C80090012003F8FFFCFFFEFFFFFF00005F
:1000380000004C43442049324320494E49542D2D59
:100048002D0049324320494E49543A005374617295
:1000580074204578652E0041434B205265636569DD
:1000680076656420666F72204D5420534C410041E0
:10007800434B20526563656976656420666F72201C
:100088004D542044617461207477695F7772697494
:10009800655F6477722000526563656976696E678B
:1000A800204D5220646174612041434B2000526509
:1000B80063656976696E67204D52204461746120DA
:1000C8004E41434B000007002D4E414E00000100F9
:1000D8002D4E414E00494E460000010002003600F8
:1000E800010005003800100060013A000A007001A4
:1000F8004A000B007A015400180085015F002800AF
:100108009D0177001700C5019F001700DC01B600AC
:100118000100F501CE0001000F02D6000000F8949E
:10012800EE27ECBBF1E0FBBFEBBFE5BF8DE0A2E043
:10013800BB27ED938A95E9F780E094E0A0E6ED937C
:100148000197E9F7E2EEF0E085919591009761F06B
:10015800A591B59105901590BF01F00105900D92FC
:100168000197E1F7FB01F0CFEFE5EDBFE4E0EEBF6B
:10017800C0E6D1E02CC0F5D615D7E8D3E0E0F0E032
:1001880060E271E4CBD507D58F01D801E4E6F0E051
:10019800A7D63E2FD801EAE0F0E0A2D6DF01EAE0D8
:1001A800F0E0A3D62E2FD801EAE0F0E09ED65E2F2D
:1001B800A1E663D0A32FA05D60D0A22FA05D5DD083
:1001C800A52FA05D5AD0A5E658D0F3D66DC221D090
:1001D8002CD4E0E0F0E0FA93EA93EA93EA93A1E002
:1001E8007AD3A0E0B0E040D3E093FF01F09300029F
:1001F8006093010270930202B09909C0A091FF01B7
:10020800B09100028091010290910202B4DFE9CF1F
:10021800FFCFE0E3E4BBE5BB26D0A0E7B1E034D0F4
:10022800ADE02BD0E6B7EB7FE6BFE0E0F0E060E8BA
:1002380070E492D6E1B9FF2766277727E5D48BD3F8
:10024800A5D2A0E0B0E080E090E468D5A0E0B0E0FE
:1002580080EC91E4B1D59FD4E0B9E4E0E6BF8BE14E
:100268008A95F1F70895E0E0E0BDE3E3E9B9E9B97B
:10027800E6E8E0BDE8E1EAB90895AA935D9BFECF00
:10028800E881ECB92196089569D3A881B981EC91E8
:10029800E03031F0ED91A883B983AE2FEEDFF5CFD2
:1002A800229608950A921A92FA926A937A938A93F6
:1002B8009A93AA93BA93EA93FA93EFB7EA9372D60A
:1002C8001091F4010091F301309106022091F5019B
:1002D800E12FA0910702B0910802F0E0EA0FFB1F9E
:1002E800AF01E1B1E87FE83011F420E002C0E0316D
:1002F80019F4E091030210C0E83111F0E83221F559
:10030800031780F4E02F0F5FA0910402B09105025B
:10031800F0E0AE0FBF1FEC91E3B9E6B7EF70E0680D
:10032800E6BF11C0E09109021E1760F4E0910302D4
:10033800E160E0930302E89420F8E6B7EF70E06A22
:10034800E6BFFBC033C0F9C0E03529F4E3B1DA01F8
:10035800EC931F5F02C0E03471F4E0910902E150B0
:100368001E1720F0E6B7EF70E06803C0E6B7EF703D
:10037800E06CE6BFE2C0E83529F4E3B1DA01EC93BA
:100388001F5F02C0E03209F402C0E03309F402C082
:10039800E83469F4203051F420FE03C0031728F034
:1003A80005C0E09109021E1708F424E0C0C0E83334
:1003B80029F422E0E6B7EF70E068BCC0E83611F037
:1003C800E83711F422E005C0E03611F0E03791F487
:1003D80020E010E0E89420F8E0910A02E03029F4E7
:1003E80021E0E6B7EF70E06803C0E6B7EF70E06CB5
:1003F800E6BFA3C0E03811F0E03929F520FE02C0BD
:1004080021E095C0E3B1DA01EC931F5FE0910A02A5
:100418001E17B0F4E0910B02F0910C02309711F422
:1004280026E085C0A0E0E0910B02F0910C0209954E
:10043800E03029F0E6B7EF70E06CE6BF7EC002C09E
:10044800689420F802C0E83809F402C0E83929F4B1
:10045800E6B7EF70E068E6BF70C0E03AA9F4E6B727
:10046800EF70E06CE6BF689421F8E0910B02F09120
:100478000C02309739F0A1E0E0910B02F0910C02E8
:10048800099501C026E059C0E03B11F422E002C002
:10049800E83AB9F4E0910D02F0910E02309759F064
:1004A800A0E0E0910D02F0910E0209953E2FE03098
:1004B80011F020E002C026E03AC000E0E89420F8FD
:1004C80002C0E83BE1F420FE02C021E030C0E02F8A
:1004D8000F5FA0910402B0910502F0E0AE0FBF1FBC
:1004E800EC91E3B9031720F4E6B7EF70E06C05C0B0
:1004F800689420F8E6B7EF70E068E6BF1EC0E03CFD
:1005080011F0E83C89F4E6B7EF70E06CE6BFE091E3
:100518000D02F0910E02309731F0A1E0E0910D024A
:10052800F0910E02099507C0E03039F423E0E6B7F0
:10053800EF70E06DE6BF689421F81093F401009322
:10054800F3012093F5013093060233D52696E991FD
:10055800EFBFF991E991B991A9919991899179910F
:100568006991F990199009901895FBD47B816A815B
:10057800F981E88177FB770F67FD7160972F9E57A8
:1005880081F078F0983190F4AA27BB27882708943F
:100598008795B795A7959A95D1F7EA23FB23682302
:1005A80005C0E8947727EE27FF2766276F777695AB
:1005B80008F4606877F9A991B99189919991EA1736
:1005C800FB076807790797FB0895CBD4BBD4CDDF29
:1005D800BED411F4C6D103C0EEF7C3D1C4D124965A
:1005E8000895BFD42497E2D4B1D1D1D42CF0EFEF41
:1005F800FFEF6FE77FEF57C0BCD1AED4ADB7BEB742
:1006080011971F930F9377D20F911F91B7D19ED156
:10061800E3EFF4E065E37FE314D430F4AAD196D194
:100628002DD3ACD101501040A4D19DD17F936F93AD
:10063800FF93EF939ED1A0E0B0E080E89FE31ED344
:10064800AF91BF918F919F91B7D39DD1A6E2B2E4AC
:1006580085E69FE363D37FD1EEE4F1E164E570E4DE
:1006680085D405D373D15AD37F936F93FF93EF93B8
:1006780093D1ADE4B1E184ED9FE3F9D2AF91BF919D
:100688008F919F9199D37F936F93FF93EF93F80185
:1006980088D1A8E1B2E781E39FE340D3AF91BF914E
:1006A8008F919F91EBD289D42A9608955AD428978E
:1006B8007DD47AD1E0E5FCEA6EEA72ECC2D310F49C
:1006C80078D161C0EA85FB856C857D855CD411F4A1
:1006D80075D159C069D1E8E1F2E761EB72E4B1D3B1
:1006E80009F008F405C0EFEFFFEF6FE77FE74BC0B5
:1006F8005BD1EBE3FAEA68EB7FE310D3EA87FB8789
:100708006C877D8751D161DF48D28F014DD149D1A6
:100718002DD4ADD220D1E0E0F0E060E07FE326D434
:10072800A6D231D1ADE6BCE48CE69DE3F7D2A6EAC9
:10073800B3EE86EE90E4A2D209D1F0D21FD12CD12B
:10074800A8E2BDE886EA91E499D2EA83FB836C8348
:100758007D830FD1AA81BB818C819D818FD2A3EF2C
:10076800B4E085EB9FE3DAD27F936F93FF93EF9327
:10077800EDD012D17CD2AF91BF918F919F911CD3B4
:10078800EBD3D801C9D119D42E960895EAD324976A
:100798001AD1F9D311F40DD127C01AD1F8D344F4E2
:1007A8001CD1F1D311F40AD11FC012D11BD11CC026
:1007B80014D1DE01F2D1B5D3D4D026D2DF01CB01DA
:1007C8000CD1EBD311F0F5D00FC0FDD0B1D1C3D00F
:1007D80009D1E887F9876A877B87E881E17011F496
:1007E800F2D002C0F0D0A4D12C960895B7D01A93B5
:1007F8001CD1E03011F4E0E06BC0E981FA81309758
:1008080069F0A5E558D110E0F5D0ED91A983BA8338
:10081800AE2F51D11F5F1830B8F302C0ACEC4BD1EA
:10082800E1E056C09BD0C0D3AC81BD81E6D011F4C5
:10083800E0E017C0AEEB3FD110E026EF31E03F9388
:100848002F932F5F3F4F32D1AF91BF91EC931F5F32
:100858001930A8F3E6EFF1E0FA93EA93A9E035D16D
:1008680027D3A9D32696089579D01A93C3D0DADF6F
:10087800E03011F4C5D02CC0E091FA01E295EF7098
:10088800E695E3701E2FB6D0B8D011F4B9D020C0C9
:10089800A4E411D1E12FA6E2B0E0B7D04BD3BBD08E
:1008A800A9D0C0DFE03011F4ABD012C0BED0E12F28
:1008B800AEE2B0E0AAD03AD3A091F601B091F70128
:1008C800EA23FB236ED0A0E0B0E080E89DE326D2C7
:1008D800188123960895AA93AB81BC818ED011F418
:1008E800E0E032C0E881E295E07FEE0FEF61E88357
:1008F800AEE4E1D0A981DFD0AA81DDD0A881DBD028
:10090800AB81BC818FDFE03011F4E0E01DC0A09125
:10091800F901EA81EA1751F4A091F801E981EA178F
:1009280029F4A091FA01E881EA1711F0E0E00CC07F
:10093800AB81BC8162D011F4E0E006C0A8E4BBD072
:10094800AFE0B0E068D071D025960895AE81BF8140
:10095800888599850895DF01CB010895BA93AA93F4
:100968000895EBD20895A0E0B0E080E89FE37FD13E
:100978000895EE81FF81688579850895EE83FF8368
:10098800688779870895FADFF4DFE0DFC7D1EA8363
:10099800FB836C837D830895EA81FB816C817D8173
:1009A800089581D231D10895AA85BB858C859D850E
:1009B8000895E0E0F0E060E070E00895E0E0F0E045
:1009C80060E87FE30895E885F9856A857B85089561
:1009D800A885B9858A859B850895EC81FD816E81FE
:1009E8007F810895FEDDAC81BD818E819F8196D186
:1009F800B2DF5CCEA981BA810895F8DEE0300895AF
:100A0800E0E0FCE36CE176EC0895F0E0EE0FFF1F08
:100A1800EA0FFB1F0895109639F080ED97E00197D3
:100A2800F1F7A8951197C9F70895EE27A898A09A05
:100A380080EC93E00197F1F7A09885E28A95F1F7A9
:100A4800989B08958BEC8A95F1F7989BE1E08CE0F0
:100A580093E00197F1F70895A09A85E08A95F1F758
:100A6800A0988DE18A95F1F7889498990894E7956C
:100A780085ED8A95F1F70895E894A09A85E08A951E
:100A8800F1F770FDA09883E28A95F1F7989903C071
:100A980070FF03C0089570FF089588EC8A95F1F7F8
:100AA800A0988DE08A95F1F76894089568E0D4DFFE
:100AB8006A95E9F708957A2F68E0EE27DDDF26F4D6
:100AC80077956A95D9F7E3950895EE27AA2389F0D3
:100AD8008A2F68E1A881B98198E0FD917F2F7E2750
:100AE800779508F4E627E795F6959A95B9F78A95E4
:100AF80099F722960895E991F9916991799177FB8F
:100B0800660F771F88277E57880B7D938C937EE727
:100B1800769567956EF00895E991F99169917991C3
:100B280077FB660F771F7A0F769567950EF0089515
:100B380030976040704009F070580895552342F48A
:100B4800503811F4E0FF04C03196691F791F6BF02B
:100B580050E8572711F45F93CFC05F3F31F0660F1D
:100B6800000C57956795752F08955F9300200AF03C
:100B7800CFC0C8C050E8192E1522880F991F952795
:100B8800550F879550E8072E0522660F771F7527A2
:100B9800550F67950895689401C0E8945F93F2DF54
:100BA800703818F07F3F08F4A7C056E1571BAAF425
:100BB800519558300EF4593030F0EFEFFFEF6FEFEA
:100BC8007FE777F91AC077275523B9F0EE0FFF1F93
:100BD800661F771F5A95D1F710C07727583028F02D
:100BE800EF2FF62F672F5850F9CF552331F0769510
:100BF8006795F795E7955A95D1F700200AF445D1FE
:100C08005F910895689401C0E894309760407040FF
:100C1800B1F0002426F0772312F4009436D1172E71
:100C28007EE1112032F07A95EE0FFF1F661F111C2E
:100C3800F9CFEF2FF62F612D5F938ADF5F9108952B
:100C48004F93AF01FD01DA01AB01BC01CA01402D90
:100C5800012C142E4F910895EA0FFB1F681F089569
:100C6800E095F0956095EF5FFF4F6F4F08955F93A4
:100C780081DF903871F150E8152604C05F937ADF60
:100C8800903839F1703821F1572F591B2BF112F494
:100C9800D7DFFACF583118F0AA27BB278827583052
:100CA80028F0AB2FB82F88275850F9CF552329F0B3
:100CB8008695B795A7955A95D9F7502D512572F075
:100CC800CBDF38F46795F795E795739513F420C053
:100CD800B7DF3EDF5F910895D8F7FBCFEA1BFB0B28
:100CE800680B51F010F40094BBDF662392F3EE0F0B
:100CF800FF1F661F7A95CBF7EE27FF276627772712
:100D08005F910895EFEFFFEF6FE77FEF5F91089531
:100D1800EFEFFFEF6FE77FE75F9108955F932ADFBB
:100D2800703851F3903841F301240894791F23F463
:100D38001CF300203AF3ECCF0F921F932F933F93AD
:100D48004F93112722279927689FA0018F9F302D45
:100D5800410D591F6B9F300D411D591F8E9F27D084
:100D6800BF9F25D06A9F23D0BE9F1DD0AF9F1BD0A9
:100D7800AE9F110D291F391F491F591FE32FF42F4B
:100D8800652F522F4F913F912F911F910F906623FE
:100D98002AF0550FEE1FFF1F661F02C073954BF216
:100DA800CDDE5F910895100D211D391F02C0200D61
:100DB800311D491F591F08955F93DCDE703821F4F7
:100DC80011200AF49FCFA4CF903809F495CF0124BD
:100DD8000894970B1BF4D4F30020F3CF792F1F93BB
:100DE8002F933F934F93112411272227332744270A
:100DF800552790E2AE17BF078607410730F0AE1BB4
:100E0800BF0B860B410B089401C08894551F221F05
:100E1800331F111CAA1FBB1F881F441F9A9551F727
:100E2800F901612D4F913F912F911F91662332F067
:100E3800550FEE1FFF1F661F7A9543F27FDE5F9105
:100E4800089599239AF0772342F0971748F029F4E8
:100E5800AE17BF07860720F031F09894889408955C
:100E68009894089408951894889408957723C2F75D
:100E7800971798F3A9F7EA17FB07680788F399F318
:100E8800ECCFF195E195F0400895F0956095709557
:100E9800E195FF4F6F4F7F4F0895FE2FFF0FFF0B18
:100EA8006F2F7F2F08956F2F660F660B762F08958B
:100EB800EE23E1E009F0EE2708950024112490E1E3
:100EC800AA0FBB1F001C111C0E1A1F0A18F40E0EC5
:100ED8001F1E01C0A1609A9599F7FD01D0010895E0
:100EE80012D0EBDF0EF4CDDF0895E894B7FF04C00D
:100EF800A095B09511966894F7FDC3DFDEDFFD017C
:100F08000EF4BFDF0895E894F7FF02C0BADF6894D3
:100F1800B7FF06C0A095B095119600F8039400FAA3
:100F28000895ED93FD936D937C9308950590F49146
:100F3800E02D0895A591B4910895E881F9816A8119
:100F48007B810895A881B9818A819B810895E8836E
:100F5800F9836A837B8308957A936A93FA93EA9371
:100F680008959A938A93BA93AA930895182E862F70
:100F7800612D192E972F712D1B2EBF2FF12D1A2E93
:100F8800AE2FE12D089530976040704008950024F9
:100F98000A160B06080609060895EA17FB076807EC
:100FA800790708955A934A933A932A931A930A937E
:100FB80008955D814C813B812A81198108810895BA
:00000001FF
