:0C00000098C0FECFFDCFFCCFFBCFFACFA5
:10000C00F9CFF8CFF7CFF6CFF5CFF4CFF3CFF2CFC0
:10001C00F1CFF0CFEFCFCCC1EDCF6400C800900191
:10002C002003F8FFFCFFFEFFFFFF000000004C4325
:10003C00442049324320494E49542D2D2D0052461F
:10004C003433330049324320494E49543A005374F7
:10005C00617274204578652E0041434B20526563D4
:10006C00656976656420666F72204D5420534C414F
:10007C000041434B20526563656976656420666F69
:10008C0072204D542044617461207477695F7772DB
:10009C006974655F6477722000526563656976697F
:1000AC006E67204D5220646174612041434B2000E7
:1000BC00526563656976696E67204D5220446174A0
:1000CC0061204E41434B000007002D4E414E000075
:1000DC0001002D4E414E00494E4600000100020029
:1000EC003600010005003800100060013A000600DF
:1000FC0070014A000A00760150000B0080015A0082
:10010C0018008B0165002800A3017D001700CB01AE
:10011C00A5001700E201BC000100FB01D4000100A6
:10012C001502DC000000F894EE27ECBBF1E0FBBFFD
:10013C00EBBFE5BF8DE0A2E0BB27ED938A95E9F715
:10014C0080E094E0A0E6ED930197E9F7E8EEF0E0AB
:10015C0085919591009761F0A591B59105901590B9
:10016C00BF01F00105900D920197E1F7FB01F0CF73
:10017C00EFE5EDBFE4E0EEBFC0E6D1E084C0AA93AA
:10018C00D0D0A0E4DDD0A881E8D0F4D005C1AA93EA
:10019C001A9310E0EFE05E22E981E07F1E2F5CD421
:1001AC00E981EF70E295E07F1E2FEFE05E2254D4E0
:1001BC001881FCC0AA93E8E05E2EEEEF5E225CD4C0
:1001CC00EBC0AA93E9E05E2A57D4E6C059D45BD4BD
:1001DC00EC91E03019F05AD4F4DFF9CFE7C079D7BD
:1001EC0099D75AD4E0E0F0E060E271E44FD68BD5B9
:1001FC008F01D801E4E6F0E02BD73E2FD801EAE0DE
:10020C00F0E026D7DF01EAE0F0E027D72E2FD80167
:10021C00EAE0F0E022D75E2FA1E643D4A32FA05D45
:10022C0040D4A22FA05D3DD4A52FA05D3AD4A5E665
:10023C00AED0A8ECB0E0A7D474D7BCC2A1E021C06A
:10024C00E4E05E2EA52D9BDF83E48A95F1F7A3E015
:10025C00B1DFA3E0AFDFA3E0ADDFA2E0ABDFA8E24C
:10026C00A9DFAFE0A7DFA1E0A5DFA6E0A3DFA0E850
:10027C00A1DFA0E6B1E0AADFA8EEB3E084D4DEDF14
:10028C00A0E898DF089525D0DBDFA0E7B1E09EDF82
:10029C0084D4E0E0F0E0FA93EA93EA93EA93A1E0E5
:1002AC00A0D3A0E0B0E066D3E0930502F093060281
:1002BC006093070270930802B09909C0A0910502DF
:1002CC00B0910602809107029091080288DFE9CF75
:1002DC00FFCFE0E3E4BBE5BB50D0A6E7B1E0E5D34C
:1002EC00E6B7EB7FE6BFE0E0F0E060E870E4ECD668
:1002FC00E1B9FF27662777273FD5DAD3CDD2A0E027
:10030C00B0E080E090E4C2D5A0E0B0E080EC91E4F5
:10031C000BD6F9D4E0B9E4E0E6BF8BE18A95F1F7AE
:10032C0008951A93E4EAE6BFC6D3F1F3C4D3F1F30C
:10033C00C5D3103119F4A0E8B1E0B7D319910895E1
:10034C00C1D3B9D3F1F3BAD3183211F418812EC03A
:10035C00ABE8B1E0AAD3188129C0B4D3ACD3F1F384
:10036C00ADD3183211F4188121C0A3EAB1E09DD3AA
:10037C0018811CC0E4E9E6BF0895E0E0E0BDE3E3CA
:10038C00E9B9E9B9E6E8E0BDE8E1EAB90895AA936C
:10039C005D9BFECFE881ECB92196089571D373D3A0
:1003AC00EC91E03019F072D3F2DFF9CF2296089578
:1003BC000A921A92FA926A937A938A939A93AA93CC
:1003CC00BA93EA93FA93EFB7EA93A4D61091FA0191
:1003DC000091F90130910C022091FB01E12FA091C9
:1003EC000D02B0910E02F0E0EA0FFB1FAF01E1B17C
:1003FC00E87FE83011F420E002C0E03119F4E0911C
:10040C00090210C0E83111F0E83221F5031780F42D
:10041C00E02F0F5FA0910A02B0910B02F0E0AE0F3B
:10042C00BF1FEC91E3B9E6B7EF70E068E6BF11C00F
:10043C00E0910F021E1760F4E0910902E160E09375
:10044C000902E89420F8E6B7EF70E06AE6BFFBC05B
:10045C0033C0F9C0E03529F4E3B1DA01EC931F5F46
:10046C0002C0E03471F4E0910F02E1501E1720F04D
:10047C00E6B7EF70E06803C0E6B7EF70E06CE6BF7C
:10048C00E2C0E83529F4E3B1DA01EC931F5F02C056
:10049C00E03209F402C0E03309F402C0E83469F434
:1004AC00203051F420FE03C0031728F005C0E09162
:1004BC000F021E1708F424E0C0C0E83329F422E030
:1004CC00E6B7EF70E068BCC0E83611F0E83711F41D
:1004DC0022E005C0E03611F0E03791F420E010E0A6
:1004EC00E89420F8E0911002E03029F421E0E6B71E
:1004FC00EF70E06803C0E6B7EF70E06CE6BFA3C036
:10050C00E03811F0E03929F520FE02C021E095C059
:10051C00E3B1DA01EC931F5FE09110021E17B0F407
:10052C00E0911102F0911202309711F426E085C08F
:10053C00A0E0E0911102F09112020995E03029F04F
:10054C00E6B7EF70E06CE6BF7EC002C0689420F89E
:10055C0002C0E83809F402C0E83929F4E6B7EF70B4
:10056C00E068E6BF70C0E03AA9F4E6B7EF70E06C63
:10057C00E6BF689421F8E0911102F09112023097D5
:10058C0039F0A1E0E0911102F0911202099501C03D
:10059C0026E059C0E03B11F422E002C0E83AB9F47D
:1005AC00E0911302F0911402309759F0A0E0E09121
:1005BC001302F091140209953E2FE03011F020E067
:1005CC0002C026E03AC000E0E89420F802C0E83B04
:1005DC00E1F420FE02C021E030C0E02F0F5FA091BB
:1005EC000A02B0910B02F0E0AE0FBF1FEC91E3B921
:1005FC00031720F4E6B7EF70E06C05C0689420F8A0
:10060C00E6B7EF70E068E6BF1EC0E03C11F0E83CD6
:10061C0089F4E6B7EF70E06CE6BFE0911302F0915D
:10062C001402309731F0A1E0E0911302F091140222
:10063C00099507C0E03039F423E0E6B7EF70E06DC0
:10064C00E6BF689421F81093FA010093F901209306
:10065C00FB0130930C0265D52696E991EFBFF99119
:10066C00E991B991A9919991899179916991F990AF
:10067C001990099018952DD57B816A81F981E881B3
:10068C0077FB770F67FD7160972F9E5781F078F09D
:10069C00983190F4AA27BB27882708948795B7959B
:1006AC00A7959A95D1F7EA23FB23682305C0E89414
:1006BC007727EE27FF2766276F77769508F4606813
:1006CC0077F9A991B99189919991EA17FB07680774
:1006DC00790797FB0895FDD4EDD4CDDFF0D411F458
:1006EC00F8D103C0EEF7F5D1F6D124960895F1D4E4
:1006FC00249714D5D1D103D52CF0EFEFFFEF6FE792
:10070C007FEF57C0EED1E0D4ADB7BEB711971F93B2
:10071C000F93A9D20F911F91E9D1BED1E3EFF4E071
:10072C0065E37FE346D430F4DCD1B6D15FD3DED1C0
:10073C0001501040D6D1CFD17F936F93FF93EF939D
:10074C00D0D1A0E0B0E080E89FE350D3AF91BF914F
:10075C008F919F91E9D3CFD1A6E2B2E485E69FE3D6
:10076C0095D3A6D1EEE4F1E164E570E4B7D437D3C8
:10077C0093D18CD37F936F93FF93EF93C5D1ADE45B
:10078C00B1E184ED9FE32BD3AF91BF918F919F91FA
:10079C00CBD37F936F93FF93EF93F801BAD1A8E17A
:1007AC00B2E781E39FE372D3AF91BF918F919F9199
:1007BC001DD3BBD42A9608958CD42897AFD4ACD132
:1007CC00E0E5FCEA6EEA72ECF4D310F4AAD161C055
:1007DC00EA85FB856C857D858ED411F4A7D159C033
:1007EC009BD1E8E1F2E761EB72E4E3D309F008F4A2
:1007FC0005C0EFEFFFEF6FE77FE74BC08DD1EBE369
:10080C00FAEA68EB7FE342D3EA87FB876C877D8744
:10081C0083D161DF7AD28F017FD17BD15FD4DFD2DC
:10082C0047D1E0E0F0E060E07FE358D4D8D263D168
:10083C00ADE6BCE48CE69DE329D3A6EAB3EE86EEE6
:10084C0090E4D4D229D122D351D15ED1A8E2BDE813
:10085C0086EA91E4CBD2EA83FB836C837D8341D11E
:10086C00AA81BB818C819D81C1D2A3EFB4E085EBC1
:10087C009FE30CD37F936F93FF93EF930DD144D1F0
:10088C00AED2AF91BF918F919F914ED31DD4D80111
:10089C00FBD14BD42E9608951CD424974CD12BD439
:1008AC0011F43FD127C04CD12AD444F44ED123D4D7
:1008BC0011F43CD11FC044D14DD11CC046D1DE0136
:1008CC0024D2E7D306D158D2DF01CB013ED11DD4BF
:1008DC0011F027D10FC02FD1E3D1EAD03BD1E8875B
:1008EC00F9876A877B87E881E17011F424D102C013
:1008FC0022D1D6D12C960895C3D01A934ED1E03084
:10090C0011F4E0E06BC0E981FA81309769F0A5E55C
:10091C008AD110E027D1ED91A983BA83AE2F83D170
:10092C001F5F1830B8F302C0ACEC7DD1E1E056C0CB
:10093C00A7D0F2D3AC81BD8118D111F4E0E017C07F
:10094C00AEEB71D110E02CEF31E03F932F932F5F82
:10095C003F4F64D1AF91BF91EC931F5F1930A8F357
:10096C00ECEFF1E0FA93EA93A9E067D159D3DBD32A
:10097C002696089585D01A93F5D0DADFE03011F47D
:10098C00F7D02CC0E0910002E295EF70E695E37091
:10099C001E2FE8D0EAD011F4EBD020C0A4E443D150
:1009AC00E12FA6E2B0E0E9D07DD3EDD0DBD0C0DF03
:1009BC00E03011F4DDD012C0F0D0E12FAEE2B0E0A7
:1009CC00DCD06CD3A091FC01B091FD01EA23FB2398
:1009DC00A0D0A0E0B0E080E89DE358D21881239627
:1009EC000895AA93AB81BC81C0D011F4E0E032C071
:1009FC00E881E295E07FEE0FEF61E883AEE413D17E
:100A0C00A98111D1AA810FD1A8810DD1AB81BC8153
:100A1C008FDFE03011F4E0E01DC0A091FF01EA810E
:100A2C00EA1751F4A091FE01E981EA1729F4A0918B
:100A3C000002E881EA1711F0E0E00CC0AB81BC8148
:100A4C0094D011F4E0E006C0A8E4EDD0AFE0B0E043
:100A5C009AD0A3D025960895512AE4E05E2AA52DBC
:100A6C008EDB83E08A95F1F7EBEF5E22A52D87DB19
:100A7C008DE08A95F1F70895A52D81DBA88187CBB0
:100A8C00BA93AA930895A881B9810895FCDFED91DA
:100A9C00A883B983AE2F0895AE81BF8188859985CF
:100AAC00089575DCAAE0B0E06EC078DCADE06FCCE8
:100ABC00DF01CB010895E6B7E0780895E1B1E87F56
:100ACC001E2F0895AA931A93E981E3B9E4E8E6BFCF
:100ADC000895EBD20895A0E0B0E080E89FE37FD1C9
:100AEC000895EE81FF81688579850895EE83FF83F3
:100AFC00688779870895FADFF4DFCEDFC7D1EA8300
:100B0C00FB836C837D830895EA81FB816C817D81FD
:100B1C00089581D231D10895AA85BB858C859D8598
:100B2C000895E0E0F0E060E070E00895E0E0F0E0CF
:100B3C0060E87FE30895E885F9856A857B850895EB
:100B4C00A885B9858A859B850895EC81FD816E8188
:100B5C007F810895CCDDAC81BD818E819F8196D142
:100B6C00A7DF2ACEA981BA810895C6DEE0300895A8
:100B7C00E0E0FCE36CE176EC0895F0E0EE0FFF1F93
:100B8C00EA0FFB1F0895109639F080ED97E001975E
:100B9C00F1F7A8951197C9F70895EE27A898A09A90
:100BAC0080EC93E00197F1F7A09885E28A95F1F734
:100BBC00989B08958BEC8A95F1F7989BE1E08CE07B
:100BCC0093E00197F1F70895A09A85E08A95F1F7E3
:100BDC00A0988DE18A95F1F7889498990894E795F7
:100BEC0085ED8A95F1F70895E894A09A85E08A95A9
:100BFC00F1F770FDA09883E28A95F1F7989903C0FC
:100C0C0070FF03C0089570FF089588EC8A95F1F782
:100C1C00A0988DE08A95F1F76894089568E0D4DF88
:100C2C006A95E9F708957A2F68E0EE27DDDF26F460
:100C3C0077956A95D9F7E3950895EE27AA2389F05D
:100C4C008A2F68E1A881B98198E0FD917F2F7E27DA
:100C5C00779508F4E627E795F6959A95B9F78A956E
:100C6C0099F722960895E991F9916991799177FB19
:100C7C00660F771F88277E57880B7D938C937EE7B2
:100C8C00769567956EF00895E991F991699179914E
:100C9C0077FB660F771F7A0F769567950EF00895A0
:100CAC0030976040704009F070580895552342F415
:100CBC00503811F4E0FF04C03196691F791F6BF0B6
:100CCC0050E8572711F45F93CFC05F3F31F0660FA8
:100CDC00000C57956795752F08955F9300200AF0C7
:100CEC00CFC0C8C050E8192E1522880F991F952720
:100CFC00550F879550E8072E0522660F771F75272D
:100D0C00550F67950895689401C0E8945F93F2DFDE
:100D1C00703818F07F3F08F4A7C056E1571BAAF4AF
:100D2C00519558300EF4593030F0EFEFFFEF6FEF74
:100D3C007FE777F91AC077275523B9F0EE0FFF1F1D
:100D4C00661F771F5A95D1F710C07727583028F0B7
:100D5C00EF2FF62F672F5850F9CF552331F076959A
:100D6C006795F795E7955A95D1F700200AF445D188
:100D7C005F910895689401C0E8943097604070408A
:100D8C00B1F0002426F0772312F4009436D1172EFC
:100D9C007EE1112032F07A95EE0FFF1F661F111CB9
:100DAC00F9CFEF2FF62F612D5F938ADF5F910895B6
:100DBC004F93AF01FD01DA01AB01BC01CA01402D1B
:100DCC00012C142E4F910895EA0FFB1F681F0895F4
:100DDC00E095F0956095EF5FFF4F6F4F08955F932F
:100DEC0081DF903871F150E8152604C05F937ADFEB
:100DFC00903839F1703821F1572F591B2BF112F41F
:100E0C00D7DFFACF583118F0AA27BB2788275830DC
:100E1C0028F0AB2FB82F88275850F9CF552329F03D
:100E2C008695B795A7955A95D9F7502D512572F0FF
:100E3C00CBDF38F46795F795E795739513F420C0DD
:100E4C00B7DF3EDF5F910895D8F7FBCFEA1BFB0BB2
:100E5C00680B51F010F40094BBDF662392F3EE0F95
:100E6C00FF1F661F7A95CBF7EE27FF27662777279C
:100E7C005F910895EFEFFFEF6FE77FEF5F910895BC
:100E8C00EFEFFFEF6FE77FE75F9108955F932ADF46
:100E9C00703851F3903841F301240894791F23F4EE
:100EAC001CF300203AF3ECCF0F921F932F933F9338
:100EBC004F93112722279927689FA0018F9F302DD0
:100ECC00410D591F6B9F300D411D591F8E9F27D00F
:100EDC00BF9F25D06A9F23D0BE9F1DD0AF9F1BD034
:100EEC00AE9F110D291F391F491F591FE32FF42FD6
:100EFC00652F522F4F913F912F911F910F90662389
:100F0C002AF0550FEE1FFF1F661F02C073954BF2A0
:100F1C00CDDE5F910895100D211D391F02C0200DEB
:100F2C00311D491F591F08955F93DCDE703821F481
:100F3C0011200AF49FCFA4CF903809F495CF012447
:100F4C000894970B1BF4D4F30020F3CF792F1F9345
:100F5C002F933F934F931124112722273327442794
:100F6C00552790E2AE17BF078607410730F0AE1B3E
:100F7C00BF0B860B410B089401C08894551F221F90
:100F8C00331F111CAA1FBB1F881F441F9A9551F7B2
:100F9C00F901612D4F913F912F911F91662332F0F2
:100FAC00550FEE1FFF1F661F7A9543F27FDE5F9190
:100FBC00089599239AF0772342F0971748F029F473
:100FCC00AE17BF07860720F031F0989488940895E7
:100FDC009894089408951894889408957723C2F7E8
:100FEC00971798F3A9F7EA17FB07680788F399F3A3
:100FFC00ECCFF195E195F0400895F09560957095E2
:10100C00E195FF4F6F4F7F4F0895FE2FFF0FFF0BA2
:10101C006F2F7F2F08956F2F660F660B762F089515
:10102C00EE23E1E009F0EE2708950024112490E16D
:10103C00AA0FBB1F001C111C0E1A1F0A18F40E0E4F
:10104C001F1E01C0A1609A9599F7FD01D00108956A
:10105C0012D0EBDF0EF4CDDF0895E894B7FF04C097
:10106C00A095B09511966894F7FDC3DFDEDFFD0106
:10107C000EF4BFDF0895E894F7FF02C0BADF68945E
:10108C00B7FF06C0A095B095119600F8039400FA2E
:10109C000895ED93FD936D937C9308950590F491D1
:1010AC00E02D0895A591B4910895E881F9816A81A4
:1010BC007B810895A881B9818A819B810895E883F9
:1010CC00F9836A837B8308957A936A93FA93EA93FC
:1010DC0008959A938A93BA93AA930895182E862FFB
:1010EC00612D192E972F712D1B2EBF2FF12D1A2E1E
:1010FC00AE2FE12D08953097604070400895002484
:10110C000A160B06080609060895EA17FB07680776
:10111C00790708955A934A933A932A931A930A9308
:10112C0008955D814C813B812A8119810881089544
:00000001FF
