:020000009BC0A3
:10000200FECFFDCFFCCFFBCFFACFF9CFF8CFF7CFA2
:10001200F6CFF5CFF4CFF3CFF2CFF1CFF0CFEFCFD2
:1000220026C1EDCF6400C80090012003F8FFFCFF59
:10003200FEFFFFFF000000004C43442049324320F2
:10004200494E49542D2D2D00756172743A00256672
:100052000D0A000049324320494E49543A00537474
:10006200617274204578652E0041434B20526563CE
:10007200656976656420666F72204D5420534C4149
:100082000041434B20526563656976656420666F63
:1000920072204D542044617461207477695F7772D5
:1000A2006974655F64777220005265636569766979
:1000B2006E67204D5220646174612041434B2000E1
:1000C200526563656976696E67204D52204461749A
:1000D20061204E41434B000007002D4E414E00006F
:1000E20001002D4E414E00494E4600000100020023
:1000F2003600010005003800100060013A000600D9
:1001020070014A000A00760156000B00800160006F
:1001120018008B016B002800A30183001700CB019C
:10012200AB001700E201C2000100FB01DA0001008E
:100132001502E2000000F894EE27ECBBF1E0FBBFF1
:10014200EBBFE5BF8DE0A2E0BB27ED938A95E9F70F
:1001520080E094E0A0E6ED930197E9F7EEEEF0E09F
:1001620085919591009761F0A591B59105901590B3
:10017200BF01F00105900D920197E1F7FB01F0CF6D
:10018200EFE5EDBFE4E0EEBFC0E6D1E000C02AD06B
:1001920052D8E0E0F0E0DBD6E0E0EA93EA93A1E0B7
:1001A200F8D5A0E0B0E0BED5E0930502F0930602D8
:1001B2006093070270930802B09912C0A0E7B1E001
:1001C20048D0E0E5F0E0C3D6E0910502F0910602E6
:1001D2006091070270910802EFDA84E048D5269612
:1001E200E0CFFFCFE0E3E4BBE5BB23D0A6E7B1E07D
:1001F20030D0ADE028D0E6B7EB7FE6BFE0E0F0E03C
:1002020060E870E4D9DAE1B9A5D6A9D695D2A0E022
:10021200B0E080E090E488D9A0E0B0E080EC91E426
:10022200D1D9BFD8E0B9E4E0E6BF8BE18A95F1F716
:100232000895E0E0E0BDE3E3E9B9E9B9E6E8E0BD4D
:10024200E8E1EAB90895AA935D9BFECFE881ECB993
:10025200A8C288D6A881B981EC91E03031F0ED9145
:10026200A883B983AE2FEFDFF5CF229608950A92C5
:100272001A92FA926A937A938A939A93AA93BA9366
:10028200EA93FA93EFB7EA93BDDA1091FA0100917B
:10029200F90130910C022091FB01E12FA0910D0296
:1002A200B0910E02F0E0EA0FFB1FAF01E1B1E87F6F
:1002B200E83011F420E002C0E03119F4E0910902C3
:1002C20010C0E83111F0E83221F5031780F4E02F75
:1002D2000F5FA0910A02B0910B02F0E0AE0FBF1FB8
:1002E200EC91E3B9E6B7EF70E068E6BF11C0E091C8
:1002F2000F021E1760F4E0910902E160E093090227
:10030200E89420F8E6B7EF70E06AE6BFFBC033C0BE
:10031200F9C0E03529F4E3B1DA01EC931F5F02C0C2
:10032200E03471F4E0910F02E1501E1720F0E6B7BD
:10033200EF70E06803C0E6B7EF70E06CE6BFE2C0C2
:10034200E83529F4E3B1DA01EC931F5F02C0E03231
:1003520009F402C0E03309F402C0E83469F4203041
:1003620051F420FE03C0031728F005C0E0910F02EC
:100372001E1708F424E0C0C0E83329F422E0E6B7EF
:10038200EF70E068BCC0E83611F0E83711F422E003
:1003920005C0E03611F0E03791F420E010E0E89477
:1003A20020F8E0911002E03029F421E0E6B7EF7086
:1003B200E06803C0E6B7EF70E06CE6BFA3C0E038C8
:1003C20011F0E03929F520FE02C021E095C0E3B129
:1003D200DA01EC931F5FE09110021E17B0F4E09176
:1003E2001102F0911202309711F426E085C0A0E0CC
:1003F200E0911102F09112020995E03029F0E6B77E
:10040200EF70E06CE6BF7EC002C0689420F802C0C4
:10041200E83809F402C0E83929F4E6B7EF70E06879
:10042200E6BF70C0E03AA9F4E6B7EF70E06CE6BF51
:10043200689421F8E0911102F0911202309739F09C
:10044200A1E0E0911102F0911202099501C026E0AB
:1004520059C0E03B11F422E002C0E83AB9F4E0915D
:100462001302F0911402309759F0A0E0E0911302C8
:10047200F091140209953E2FE03011F020E002C005
:1004820026E03AC000E0E89420F802C0E83BE1F43C
:1004920020FE02C021E030C0E02F0F5FA0910A02CF
:1004A200B0910B02F0E0AE0FBF1FEC91E3B903175E
:1004B20020F4E6B7EF70E06C05C0689420F8E6B768
:1004C200EF70E068E6BF1EC0E03C11F0E83C89F442
:1004D200E6B7EF70E06CE6BFE0911302F091140210
:1004E200309731F0A1E0E0911302F09114020995E6
:1004F20007C0E03039F423E0E6B7EF70E06DE6BF05
:10050200689421F81093FA010093F9012093FB01FA
:1005120030930C027ED92696E991EFBFF991E991C9
:10052200B991A9919991899179916991F9901990CB
:100532000990189546D97B816A81F981E88177FB18
:10054200770F67FD7160972F9E5781F078F0983191
:1005520090F4AA27BB27882708948795B795A79573
:100562009A95D1F7EA23FB23682305C0E8947727FD
:10057200EE27FF2766276F77769508F4606877F98C
:10058200A991B99189919991EA17FB0768077907AF
:1005920097FB089516D906D9CDDF09D911F4E5D410
:1005A20003C0EEF7E2D4E3D4249608950AD924973F
:1005B2002DD9E3D41CD92CF0EFEFFFEF6FE77FEFDB
:1005C20056C0E0D4F9D8ADB7BEB711971F930F93B9
:1005D20098D60F911F91DBD4D0D4E3EFF4E065E31A
:1005E2007FE335D830F4CED4C8D44ED7D0D401501E
:1005F2001040C8D4BCD47F936F93FF93EF93C2D4BF
:10060200A0E0B0E080E89FE33FD7AF91BF918F9128
:100612009F91D8D7C1D4A6E2B2E485E69FE384D7FE
:100622009ED4EEE4F1E164E570E4BFD4A6D47CD7B5
:100632007F936F93FF93EF93BBD4ADE4B1E184ED6D
:100642009FE31BD7AF91BF918F919F91BBD77F93B0
:100652006F93FF93EF93F801B0D4A8E1B2E781E37F
:100662009FE362D7AF91BF918F919F910DD7D5D85C
:100672002A960895A6D82897C9D8A2D4E0E5FCEA1C
:100682006EEA72ECE4D710F4A0D453C0A3D4ABD872
:1006920011F4A5D44EC094D4E8E1F2E761EB72E420
:1006A200D6D709F008F405C0EFEFFFEF6FE77FE759
:1006B20040C086D4EBE3FAEA68EB7FE335D794D403
:1006C2007FD468DF70D68F017BD477D46ED447D4C1
:1006D200E0E0F0E060E07FE368D45ED4ADE6BCE445
:1006E2008CE69DE321D7A6EAB3EE86EE90E4CCD663
:1006F20044D41AD74CD45CD4A8E2BDE886EA91E48B
:10070200C3D677D43FD47AD4BFD6A3EFB4E085EB77
:100712009FE30AD77F936F93FF93EF932ED448D42E
:10072200ACD6AF91BF918F919F914CD745D8D8014C
:10073200F9D573D82E96089544D8249764D453D803
:1007420011F443D427C064D452D844F466D44BD8AD
:1007520011F445D41FC05CD465D41CC05ED4DE0144
:1007620022D60FD802D456D6DF01CB0156D445D8B3
:1007720011F02BD40FC047D4E1D5F1D353D4E8877D
:10078200F9876A877B87E881E17011F43CD402C063
:100792003AD4D4D52C960895AA935D9BFECFE881D6
:1007A200ECB921960895DED3AA81F6DFA881B9813A
:1007B20041D4EDC245D4E0E8EA83EFE3EB8324D8E9
:1007C200EE85FF85EF3FAFEFFA0739F4E885F9854B
:1007D200BED3ACEDB0E018D377C0EF3FAFE7FA0776
:1007E20031F434D4B4D3ADEDB0E00ED36DC0AB85EB
:1007F200A73010F0E6E0EB871B852BD411F02DD447
:10080200FCCF39D4F0D719F430E027D41BC03B8594
:1008120037D409F008F407C020D432D418F037D402
:100822003BD4FBCF08C02CD428F431D440D445D4D7
:100832003150F9CF12D41FD445D43FD421D410F073
:1008420026D42AD410E0EB85E117F0F041D445D448
:1008520039D485D39FDEEC83FD836E837F83DDD322
:1008620016D4B0D69ED50E2F3ED444D473D330D4F2
:100872005BD60DD49AD321D4E12F1F5FE03019F754
:1008820032D4EEE2EC93DFCF3AD43197AA85A0833B
:1008920030302CF43195A885B985EDE203C0A885E6
:1008A200B985EBE2EC932BD42AD42ED41AD7E05D8F
:1008B200DB01EC9324D428D43ED7E05DDB01EC933A
:1008C200A885B985E0E0EC93A6D7609608954AD34F
:1008D200EF97619797D710E0FE01E85AFF4F01901A
:1008E200F081E02DE887F987FE01EA5AFF4F019077
:1008F200F081E02DEE83FF830CD4E0E0F0E0ED9395
:10090200FC93DE01A45ABF4F95D33197E4912E2F69
:10091200E03009F4A6C1E12FE03031F4253211F4C0
:1009220011E001C0F9D39CC1E130B9F4253211F4D0
:10093200F3D395C112E0E0E0ED8B00E02D3211F42B
:1009420001E08EC12B3219F4EBE2ED8B89C120322A
:1009520019F4E0E2ED8B84C102C0E23039F450E0D8
:1009620013E0203311F400687BC102C0E33091F43C
:10097200203310F02A3308F007C0AAE05A9F502D06
:10098200E22FE0535E0F6CC140E02E3211F414E00E
:1009920067C10FC0E43099F4203310F02A3308F015
:1009A20008C00062AAE04A9F402DE22FE0534E0F9A
:1009B20057C12C3619F4026015E052C103C0E5306C
:1009C20009F04EC1E22FE33639F4ADD3B3D3ABD342
:1009D200A481AA93B6D343C1E53411F0E53609F4F4
:1009E20002C0E636A9F5B3D3B7D3C5D6FDD2BBD381
:1009F200AD85AA2332F0AD89AB3241F0A03261F06D
:100A020012C0E8D29BD4F0D2EDE2ED8B07FF04C016
:100A1200ED89EA9396D307C0EE85FF853196A5D37B
:100A22003197AD89A08305FF46E0263639F4D2D24C
:100A3200C3D64A93AB89BC890AD207C0CBD2BCD6F3
:100A42004A932A93AC89BD89B5DE81D391D316C06E
:100A5200E33721F488D391D38BD309C0E03799F4DB
:100A620082D38BD3AE85BF85E6D11E2F08600F7768
:100A7200403011F0411708F001C0142F40E0E0E0CF
:100A8200EC8B30E062C0E43611F0E93611F4046018
:100A920002C0E53791F4EAE0EC8B01FF07C0E0E029
:100AA200FAEC6AE97BE36DD31AE01FC0E0E1F7E2FA
:100AB20060E070E066D315E018C0E83511F4086014
:100AC20003C0E83709F0CBC0E0E1EC8B01FF07C0BF
:100AD200E0E0F0E060E070E154D318E006C0E0E04E
:100AE200F0E160E070E04DD314E0403011F00F7798
:100AF20001C041E001FF05C036D32ED314963BD688
:100B02000EC002FF06C02FD327D3149630D6D1D5FC
:100B120006C029D321D314962AD666277727EA87D7
:100B2200FB876C877D8702FF0FC0AD85AA232AF45D
:100B320051D2B1D559D2EDE2ED8BED89E03019F009
:100B42001F5F4F5F01C00B7F342F00FD13C01517CD
:100B520010F4351708F00EC007FF08C002FF04C0EA
:100B62000B7F2D89115001C020E301C020E2D4D2B5
:100B72005150EDCF141780F4006102FF05C006D377
:100B820009F0515011504150E0E3EA93DAD250306B
:100B920009F051504150EECF312FEC89E030A9F4E9
:100BA200303091F003FF05C0EE85FF852591DDD23F
:100BB20005C0AE85BF852D91AE87BF87ADD25030BF
:100BC20009F051503150ECCF41C0F2D28FD52E2FC7
:100BD2002A3030F003FF02C0295C01C0295A01C04B
:100BE200205D04FD1DC0213348F4E7D2A130E0E0CE
:100BF200BE07E0E08E07E0E09E0709F40BC0431752
:100C020040F4531710F000FF01C00EC020E207FFAE
:100C120007C020E3006102FF03C0B8D209F05150BF
:100C22007BD2503009F051503150C2D290D5DCD134
:100C3200EC89C3D2FF276627772758D5A2D2E88945
:100C4200F9896A897B89CFD509F0BFCF00FF07C038
:100C5200503029F05150E0E2EA9373D2F9CF10E01C
:100C620050CE57D284D5D5D5EF966F960895FF9280
:100C7200F82E2697CBD5DE01149609D58D01E0E03A
:100C8200EC83ED83EE83EF83DE01189600D56FD5FA
:100C92005ED11A930A93E4EDF3E059D1DE0118967E
:100CA20016DEBBD52896FF9008955CD11A93C3D265
:100CB200E03011F4E0E06AC0E981FA81309769F02E
:100CC200A5E5FFD210E07ED2ED91A983BA83AE2FC3
:100CD200F8D21F5F1830B8F302C0ACECF2D2E1E0F8
:100CE20055C040D191D5AC81BD816FD211F4E0E005
:100CF20016C0AEEBE6D210E02CEF31E03F932F931B
:100D02002F5F3F4FD9D2AF91BF91EC931F5F193044
:100D1200A8F3ECEFF1E01BD1A9E0DDD2CFD47BD573
:100D2200269608951FD11A934DD2DBDFE03011F4DD
:100D32004FD22CC0E0910002E295EF70E695E3708D
:100D42001E2F40D242D211F443D220C0A4E4B9D221
:100D5200E12FA6E2B0E041D21DD563D233D2C1DF8A
:100D6200E03011F435D212C066D2E12FAEE2B0E02B
:100D720034D20CD5A091FC01B091FD01EA23FB23F2
:100D82001CD1A0E0B0E080E89DE3CED31881239689
:100D92000895AA93AB81BC8118D211F4E0E032C06D
:100DA200E881E295E07FEE0FEF61E883AEE489D25D
:100DB200A98187D2AA8185D2A88183D2AB81BC8145
:100DC20090DFE03011F4E0E01DC0A091FF01EA8164
:100DD200EA1751F4A091FE01E981EA1729F4A091E2
:100DE2000002E881EA1711F0E0E00CC0AB81BC819F
:100DF200ECD111F4E0E006C0A8E463D2AFE0B0E0C9
:100E020010D219D225960895ADD0E991F991A99100
:100E1200B991CD0105900D920020E1F7FC010895F2
:100E2200A1D0A991B991EE27FF276D91662311F008
:100E32003196FBCF089596D0AA27BB27E991F99165
:100E42000590002011F01196FBCFFD010895F8D016
:100E5200E0E0EA83EFE3EB83D9D4EB85FC85EF3F57
:100E6200AFEFFA0729F4BFD1A4EEB0E0CDDF6CC03A
:100E7200EF3FAFE7FA0729F4B6D1A5EEB0E0C4DF41
:100E820063C0AC85AA2332F4B1D158D2B4D1B8D15F
:100E9200EDE2EC93A885A73010F0E6E0E88718852C
:100EA200D8D021F0ABD019D1A4D0FACFAFD1ECD2A7
:100EB200A2D110E094D09DD0A9D1C9D360F09ED028
:100EC200F6D097D01F5F173228F08DD1A9EEB0E08F
:100ED2009BDF3AC0F1CF103021F492D1E0E3EC93E2
:100EE20016C0B7D0A1F08AD0F8D0ECD038D052DBFF
:100EF20080D08CD167D355D20E2F82D1FBD0F0E0B7
:100F02007DD05BD011D388D150D075D1EACFE8859E
:100F1200E030B1F075D1EEE2EC93E885E150E8877C
:100F2200EF5F71F079D1C3D066D160D13AD20E2F82
:100F320067D1E0D0F0E070D140D037D05CD1EDCFB6
:100F4200AE81BF81E0E0EC9368D42D960895FA93C8
:100F5200EA930895FF27662777275CD20895DF0179
:100F6200CB010895BA93AA93089517D40895A0E0E7
:100F7200B0E080E89FE381D20895AE81BF81888589
:100F820099850895EE81FF81688579850895EE83BC
:100F9200FF83688779870895FADFF4DFEEDFC4D232
:100FA200EA83FB836C837D83089510D466D208950F
:100FB200EA81FB816C817D8108957BD32BD20895D8
:100FC200AA85BB858C859D850895E0E0F0E060E010
:100FD20070E00895EA85FB856C857D850895E0E0E3
:100FE200F0E060E87FE30895EA87FB876C877D87FE
:100FF2000895EA83FB836C837D830895AA81BB8174
:101002008C819D810895E885F9856A857B8508959F
:10101200A885B9858A859B850895EC81FD816E81BD
:101022007F810895C3DAAC81BD818E819F817CD29C
:1010320096DF20CBED91FD913196FE93EE930895CC
:1010420091DF2497E0E0E883E9830895E885F98554
:101052000895E12F1150E0300895AC81BD818E8159
:101062009F81E0E0F0E060E271E45ED2EC83FD8318
:101072006E837F830895EC85FD856E857F85089557
:10108200CCDFAC85BD858E859F85E1D20895AC8588
:10109200BD858E859F850895EDECFCEC6CEC7DE3BF
:1010A20043D2EC87FD876E877F873F5F0895E0E03C
:1010B200F0E060E271E438D20895EC87FD876E8734
:1010C2007F870895A0E0B0E080E09FE3DDD108953E
:1010D200AC81BD818E819F810895EDECFCEC6CECBE
:1010E2007DE322D20895A885B9851196A887B9878C
:1010F20011970895E02FE05DEC93E02F0895A6DFAD
:101102003196E887F98708953197BF01A32FEAE066
:101112000895AE81BF8108952A93AF81B885E9858C
:10112200FA8509950895FE01E65AFF4F0190F08174
:10113200E02D08953497DE01A65ABF4FED93FC933C
:101142000895AF81B885E985FA8509950895FE016C
:101152007696EE87FF870895DE01A65ABF4F0D905F
:10116200BC91A02D0895DFDFE5CFEE87FF870895BC
:10117200AE85BF8555DE1E2F0895EEDF1496F7D299
:10118200F4CFE88BF98B6A8B7B8B08950B7FED890B
:10119200EA93DE01A95ABF4F0D90BC91A02DFE012A
:1011A200E75AFF4F0190F081E02D099550300895E4
:1011B200E889F9896A897B8903CFA889B9898A89EB
:1011C2009B890895A981BA8108956FDDE030089561
:1011D200E0E0FCE36CE176EC0895F0E0EE0FFF1F37
:1011E200EA0FFB1F0895EE81FF81B1CEE985FA85F2
:1011F2006B857C850895E987FA876B877C870895DC
:1012020088DF1196AE83BF8311970895D1DEA98539
:10121200BA858B859C850895A985BA858B859C8521
:101222000895109639F080ED97E00197F1F7A895AF
:101232001197C9F70895EE27A898A09A80EC93E039
:101242000197F1F7A09885E28A95F1F7989B0895A6
:101252008BEC8A95F1F7989BE1E08CE093E00197A3
:10126200F1F70895A09A85E08A95F1F7A0988DE1AB
:101272008A95F1F7889498990894E79585ED8A956F
:10128200F1F70895E894A09A85E08A95F1F770FD48
:10129200A09883E28A95F1F7989903C070FF03C082
:1012A200089570FF089588EC8A95F1F7A0988DE073
:1012B2008A95F1F76894089568E0D4DF6A95E9F7B2
:1012C20008957A2F68E0EE27DDDF26F477956A9598
:1012D200D9F7E3950895EE27AA2389F08A2F68E1CA
:1012E200A881B98198E0FD917F2F7E27779508F438
:1012F200E627E795F6959A95B9F78A9599F7229692
:101302000895E991F9916991799177FB660F771FB9
:1013120088277E57880B7D938C937EE77695679519
:101322006EF00895E991F9916991799177FB660FD1
:10133200771F7A0F769567950EF008953097604083
:10134200704009F070580895552342F4503811F452
:10135200E0FF04C03196691F791F6BF050E85727F0
:1013620011F45F93CFC05F3F31F0660F000C5795C9
:101372006795752F08955F9300200AF0CFC0C8C00B
:1013820050E8192E1522880F991F9527550F87951A
:1013920050E8072E0522660F771F7527550F6795B0
:1013A2000895689401C0E8945F93F2DF703818F0F2
:1013B2007F3F08F4A7C056E1571BAAF45195583055
:1013C2000EF4593030F0EFEFFFEF6FEF7FE777F970
:1013D2001AC077275523B9F0EE0FFF1F661F771F3C
:1013E2005A95D1F710C07727583028F0EF2FF62FF3
:1013F200672F5850F9CF552331F076956795F795B9
:10140200E7955A95D1F700200AF445D15F910895E6
:10141200689401C0E894309760407040B1F00024B5
:1014220026F0772312F4009436D1172E7EE1112094
:1014320032F07A95EE0FFF1F661F111CF9CFEF2FC6
:10144200F62F612D5F938ADF5F9108954F93AF016D
:10145200FD01DA01AB01BC01CA01402D012C142EA1
:101462004F910895EA0FFB1F681F0895E095F095CC
:101472006095EF5FFF4F6F4F08955F9381DF903864
:1014820071F150E8152604C05F937ADF903839F184
:10149200703821F1572F591B2BF112F4D7DFFACFF5
:1014A200583118F0AA27BB278827583028F0AB2FCD
:1014B200B82F88275850F9CF552329F08695B7952C
:1014C200A7955A95D9F7502D512572F0CBDF38F4F4
:1014D2006795F795E795739513F420C0B7DF3EDF64
:1014E2005F910895D8F7FBCFEA1BFB0B680B51F015
:1014F20010F40094BBDF662392F3EE0FFF1F661F0A
:101502007A95CBF7EE27FF27662777275F91089515
:10151200EFEFFFEF6FE77FEF5F910895EFEFFFEFE0
:101522006FE77FE75F9108955F932ADF703851F389
:10153200903841F301240894791F23F41CF300200E
:101542003AF3ECCF0F921F932F933F934F931127B0
:1015520022279927689FA0018F9F302D410D591F87
:101562006B9F300D411D591F8E9F27D0BF9F25D0E5
:101572006A9F23D0BE9F1DD0AF9F1BD0AE9F110D7F
:10158200291F391F491F591FE32FF42F652F522F8F
:101592004F913F912F911F910F9066232AF0550F83
:1015A200EE1FFF1F661F02C073954BF2CDDE5F91E7
:1015B2000895100D211D391F02C0200D311D491F34
:1015C200591F08955F93DCDE703821F411200AF46C
:1015D2009FCFA4CF903809F495CF01240894970B9C
:1015E2001BF4D4F30020F3CF792F1F932F933F9353
:1015F2004F9311241127222733274427552790E29E
:10160200AE17BF078607410730F0AE1BBF0B860B34
:10161200410B089401C08894551F221F331F111CCF
:10162200AA1FBB1F881F441F9A9551F7F901612D0C
:101632004F913F912F911F91662332F0550FEE1F6C
:10164200FF1F661F7A9543F27FDE5F91089599230B
:101652009AF0772342F0971748F029F4AE17BF07A4
:10166200860720F031F0989488940895989408940D
:1016720008951894889408957723C2F7971798F3DA
:10168200A9F7EA17FB07680788F399F3ECCF002460
:10169200AF0DB01D0895F09560957095E195FF4FDF
:1016A2006F4F7F4F0895FE2FFF0FFF0B6F2F7F2F7E
:1016B20008956F2F660F660B762F0895EE23E1E0F3
:1016C20009F0EE270895002498E0AA0F001C0E1AD4
:1016D20010F40E0E01C0A1609A95B9F7EA2FA02D61
:1016E200089539D0F0DF0EF4E19508953F934F93BA
:1016F2005F93002411244427552730E2AA0FBB1F11
:10170200881F991F001C111C441F551F0E1A1F0A07
:10171200460B570B28F40E0E1F1E461F571F01C003
:10172200A1603A9559F7FD01BC01D001CA015F9150
:101732004F913F910895E894A7FF02C0A195689444
:10174200E7FDE195C0DFEA2F0EF4E1950895CEDFC3
:10175200FD01BC010895E894E7FF02C0E195689499
:10176200A7FF04C0A19500F8039400FA0895ED9133
:10177200FC9111970895ED91FD916D917C911397D4
:101782000895ED93FD936D937C9308950590F491E4
:10179200E02D0895A591B4910895E881F9816A81B7
:1017A2007B810895A881B9818A819B810895E8830C
:1017B200F9836A837B8308957A936A93FA93EA930F
:1017C20008959A938A93BA93AA930895182E862F0E
:1017D200612D192E972F712D1B2EBF2FF12D1A2E31
:1017E200AE2FE12D08953097604070400895002497
:1017F2000A160B06080609060895EA17FB0768078A
:10180200790708955A934A933A932A931A930A931B
:1018120008955D814C813B812A8119810881089557
:00000001FF
