:080000008CC0FECFFDCFFCCF48
:10000800FBCFFACFF9CFF8CFF7CFF6CFF5CFF4CFB4
:10001800F3CFF2CFF1CFF0CFEFCF85C1EDCF000016
:100028000000434F44452D4E2D4C4F474943005641
:1000380049434B59004E6869657420646F3A20251E
:1000480066200A00434F44455F4E5F4C4F47494383
:100058000000434F44452D4E2D4C4F4749432049FE
:1000680032433A005374617274204578652E00411A
:10007800434B20526563656976656420666F72201C
:100088004D5420534C410041434B205265636569F0
:1000980076656420666F72204D5420446174610057
:1000A800526570656174656420537461727420458B
:1000B80078652E0007002D4E414E000001002D4EA0
:1000C800414E00494E460000010002002600010092
:1000D800050028000D0060012A0006006D013700A8
:1000E8000D0073014C00120080015A000B009201B0
:1000F8006C0018009D0177001900B5018F001400ED
:10010800CE01A8000100E401BC000100FE01C4000A
:100118000000F894EE27ECBBF1E0FBBFEBBFE5BFB6
:100128008DE0A2E0BB27ED938A95E9F780E094E0A3
:10013800A0E6ED930197E9F7E0EDF0E08591959160
:10014800009761F0A591B59105901590BF01F00158
:1001580005900D920197E1F7FB01F0CFEFE5EDBFB8
:10016800E4E0EEBFC0E6D1E055C0AA9396D0A0E483
:10017800A3D0A881AED0BAD070C3AA931A9310E0C6
:10018800EFE05E22E981E07F1E2F8ED6E981EF70D5
:10019800E295E07F1E2FEFE05E2286D61881C1C06F
:1001A800AA93E8E05E2EEEEF5E228ED656C3AA939F
:1001B800E9E05E2A89D651C38BD68DD6EC91E03022
:1001C80019F08CD6F4DFF9CFACC0A1E021C0E4E08F
:1001D8005E2EA52DCADF83E48A95F1F7A3E0E0DF60
:1001E800A3E0DEDFA3E0DCDFA2E0DADFA8E2D8DF0D
:1001F800AFE0D6DFA1E0D4DFA6E0D2DFA0E8D0DF11
:10020800A0E6B1E0D9DFA8EEB3E0D5D7DEDFA0E8FD
:10021800C7DF0895E0E0E4BBE5BB1AD0D8DFADE660
:10022800B1E0CADFEDE3F0E05FD6E091EE01F091D6
:10023800EF016091F0017091F10116DA84E073D555
:100248002696A0ECADDFA3E7B1E0B6DFEBCFFFCF9A
:10025800E0E3E4BBE5BB4DD0A0E8B1E048D6E6B7A3
:10026800EB7FE6BFE0E0F0E060E870E4FDD9E1B9DB
:1002780041D645D6BDD2A0E0B0E080E090E4B8D841
:10028800A0E0B0E080E890E401D9EFD7E0B9E4E07D
:10029800E6BF8BE18A95F1F708951A93E4EAE6BF81
:1002A80031D6F1F32FD6F1F330D6103119F4A2E993
:1002B800B1E01DD6199108952CD624D6F1F325D690
:1002C800183211F418812DC0ADE9B1E010D61881AB
:1002D80028C01FD617D6F1F318D6183211F4188192
:1002E80020C0A5EBB1E003D618811BC0E4E9E6BF46
:1002F8000895E0E0E0BDE3E3E9B9E9B9E6E8E0BD87
:10030800E8E1EAB90895AA935D9BFECFE881ECB9CC
:10031800A4C2DED5E0D5EC91E03019F0DFD5F3DFEB
:10032800F9CF229608950A921A92FA926A937A93CA
:100338008A939A93AA93BA93EA93FA93EFB7EA93B4
:10034800B9D91091E3010091E2013091F5012091B2
:10035800E401E12FA091F601B091F701F0E0EA0F76
:10036800FB1FAF01E1B1E87FE83011F420E002C0E3
:10037800E03119F4E091F20110C0E83111F0E832EF
:1003880021F5031780F4E02F0F5FA091F301B091DE
:10039800F401F0E0AE0FBF1FEC91E3B9E6B7EF70E0
:1003A800E068E6BF11C0E091F8011E1760F4E09123
:1003B800F201E160E093F201E89420F8E6B7EF700B
:1003C800E06AE6BFFBC033C0F9C0E03529F4E3B109
:1003D800DA01EC931F5F02C0E03471F4E091F80198
:1003E800E1501E1720F0E6B7EF70E06803C0E6B7EB
:1003F800EF70E06CE6BFE2C0E83529F4E3B1DA015A
:10040800EC931F5F02C0E03209F402C0E03309F444
:1004180002C0E83469F4203051F420FE03C0031709
:1004280028F005C0E091F8011E1708F424E0C0C0C8
:10043800E83329F422E0E6B7EF70E068BCC0E8369C
:1004480011F0E83711F422E005C0E03611F0E0378A
:1004580091F420E010E0E89420F8E091F901E03010
:1004680029F421E0E6B7EF70E06803C0E6B7EF7063
:10047800E06CE6BFA3C0E03811F0E03929F520FEB2
:1004880002C021E095C0E3B1DA01EC931F5FE0916F
:10049800F9011E17B0F4E091FA01F091FB013097D1
:1004A80011F426E085C0A0E0E091FA01F091FB018B
:1004B8000995E03029F0E6B7EF70E06CE6BF7EC042
:1004C80002C0689420F802C0E83809F402C0E8398C
:1004D80029F4E6B7EF70E068E6BF70C0E03AA9F427
:1004E800E6B7EF70E06CE6BF689421F8E091FA0196
:1004F800F091FB01309739F0A1E0E091FA01F09119
:10050800FB01099501C026E059C0E03B11F422E047
:1005180002C0E83AB9F4E091FC01F091FD0130978E
:1005280059F0A0E0E091FC01F091FD0109953E2F02
:10053800E03011F020E002C026E03AC000E0E89484
:1005480020F802C0E83BE1F420FE02C021E030C000
:10055800E02F0F5FA091F301B091F401F0E0AE0F2E
:10056800BF1FEC91E3B9031720F4E6B7EF70E06C16
:1005780005C0689420F8E6B7EF70E068E6BF1EC0D3
:10058800E03C11F0E83C89F4E6B7EF70E06CE6BFB8
:10059800E091FC01F091FD01309731F0A1E0E0918C
:1005A800FC01F091FD01099507C0E03039F423E022
:1005B800E6B7EF70E06DE6BF689421F81093E301A9
:1005C8000093E2012093E4013093F5017AD826964E
:1005D800E991EFBFF991E991B991A991999189911F
:1005E80079916991F99019900990189542D87B8171
:1005F8006A81F981E88177FB770F67FD7160972F32
:100608009E5781F078F0983190F4AA27BB27882765
:1006180008948795B795A7959A95D1F7EA23FB2370
:10062800682305C0E8947727EE27FF2766276F77AA
:10063800769508F4606877F9A991B99189919991AB
:10064800EA17FB076807790797FB089512D802D8BD
:10065800CDDF05D811F464D403C0EEF761D462D4B9
:100668002496089506D8249729D862D418D82CF04F
:10067800EFEFFFEF6FE77FEF56C05FD4F5D7ADB769
:10068800BEB711971F930F93A0D50F911F915AD4FE
:100698004FD4E3EFF4E065E37FE33DD730F44DD486
:1006A80047D456D64FD40150104047D43BD47F93FB
:1006B8006F93FF93EF9341D4A0E0B0E080E89FE30D
:1006C80047D6AF91BF918F919F91E0D640D4A6E2D3
:1006D800B2E485E69FE38CD612D4EEE4F1E164E55A
:1006E80070E43ED425D484D67F936F93FF93EF9321
:1006F8003AD4ADE4B1E184ED9FE323D6AF91BF9145
:100708008F919F91C3D67F936F93FF93EF93F801D7
:100718002FD4A8E1B2E781E39FE36AD6AF91BF91F6
:100728008F919F9115D6D1D72A960895A2D7289749
:10073800C5D721D4E0E5FCEA6EEA72ECECD610F4F9
:100748001FD453C022D4A7D711F424D44EC013D435
:10075800E8E1F2E761EB72E4DED609F008F405C0DF
:10076800EFEFFFEF6FE77FE740C005D4EBE3FAEA6E
:1007780068EB7FE33DD613D4FED368DF78D58F01CD
:10078800FAD3F6D3EDD3BBD3E0E0F0E060E07FE34B
:10079800E7D3DDD3ADE6BCE48CE69DE329D6A6EA33
:1007A800B3EE86EE90E4D4D5C3D322D6CBD3DBD335
:1007B800A8E2BDE886EA91E4CBD5F6D3BED3F9D357
:1007C800C7D5A3EFB4E085EB9FE312D67F936F9371
:1007D800FF93EF93ADD3C7D3B4D5AF91BF918F91AA
:1007E8009F9154D641D7D80101D56FD72E96089539
:1007F80040D72497E3D34FD711F4C2D327C0E3D30C
:100808004ED744F4E5D347D711F4C4D31FC0DBD384
:10081800E4D31CC0DDD3DE012AD512D781D35ED53F
:10082800DF01CB01D5D341D711F0AAD30FC0C6D36E
:10083800E9D465D3D2D3E887F9876A877B87E881CB
:10084800E17011F4BBD302C0B9D3DCD42C9608955F
:10085800AA935D9BFECFE881ECB92196089538D321
:10086800AA81F6DF38D3C1D323960895C4D3E0E82C
:10087800EA83EFE3EB8320D7EE85FF85EF3FAFEF09
:10088800FA0739F4E885F9852FD3AEEBB0E069D2E1
:1008980077C0EF3FAFE7FA0731F4B3D325D3AFEB17
:1008A800B0E05FD26DC0AB85A73010F0E6E0EB8713
:1008B8001B85AAD311F0ACD3FCCFB8D3ECD619F46E
:1008C80030E0A6D31BC03B85B6D309F008F407C0B7
:1008D8009FD3B1D318F0B6D3BAD3FBCF08C0ABD3EC
:1008E80028F4B0D3BFD3C4D33150F9CF91D39ED31A
:1008F800C4D3BED3A0D310F0A5D3A9D310E0EB8501
:10090800E117F0F0C0D3C4D3B8D3F9D29FDEEC839B
:10091800FD836E837F835CD395D3B8D5A6D40E2F81
:10092800BDD3C3D3E7D2AFD363D58CD319D3A0D368
:10093800E12F1F5FE03019F7B1D3EEE2EC93DFCF80
:10094800B9D33197AA85A08330302CF43195A88586
:10095800B985EDE203C0A885B985EBE2EC93AAD38B
:10096800A9D3ADD31DD6E05DDB01EC93A3D3A7D308
:1009780041D6E05DDB01EC93A885B985E0E0EC9316
:10098800A2D660960895A4D2EF97619793D610E007
:10099800FE01E85AFF4F0190F081E02DE887F987C2
:1009A800FE01EA5AFF4F0190F081E02DEE83FF83AC
:1009B8008BD3E0E0F0E0ED93FC93DE01A45ABF4F47
:1009C80014D33197E4912E2FE03009F4A6C1E12F1A
:1009D800E03031F4253211F411E001C078D39CC124
:1009E800E130B9F4253211F472D395C112E0E0E098
:1009F800ED8B00E02D3211F401E08EC12B3219F499
:100A0800EBE2ED8B89C1203219F4E0E2ED8B84C171
:100A180002C0E23039F450E013E0203311F40068EA
:100A28007BC102C0E33091F4203310F02A3308F080
:100A380007C0AAE05A9F502DE22FE0535E0F6CC109
:100A480040E02E3211F414E067C10FC0E43099F48D
:100A5800203310F02A3308F008C00062AAE04A9F49
:100A6800402DE22FE0534E0F57C12C3619F4026087
:100A780015E052C103C0E53009F04EC1E22FE3365C
:100A880039F42CD332D32AD3A481AA9335D343C1C2
:100A9800E53411F0E53609F402C0E636A9F532D39B
:100AA80036D3C8D57CD23AD3AD85AA2332F0AD89E6
:100AB800AB3241F0A03261F012C067D2A3D36FD23B
:100AC800EDE2ED8B07FF04C0ED89EA9315D307C06B
:100AD800EE85FF85319624D33197AD89A08305FF34
:100AE80046E0263639F451D2BFD54A93AB89BC8942
:100AF8005BD107C04AD2B8D54A932A93AC89BD893D
:100B0800B5DE00D310D316C0E33721F407D310D3D2
:100B18000AD309C0E03799F401D30AD3AE85BF855B
:100B280037D11E2F08600F77403011F0411708F0B9
:100B380001C0142F40E0E0E0EC8B30E062C0E43606
:100B480011F0E93611F4046002C0E53791F4EAE0E7
:100B5800EC8B01FF07C0E0E0FAEC6AE97BE3ECD23A
:100B68001AE01FC0E0E1F7E260E070E0E5D215E0CE
:100B780018C0E83511F4086003C0E83709F0CBC0A5
:100B8800E0E1EC8B01FF07C0E0E0F0E060E070E13D
:100B9800D3D218E006C0E0E0F0E160E070E0CCD22B
:100BA80014E0403011F00F7701C041E001FF05C0AB
:100BB800B5D2ADD214963ED50EC002FF06C0AED255
:100BC800A6D2149633D5D9D406C0A8D2A0D21496EA
:100BD8002DD566277727EA87FB876C877D8702FFF5
:100BE8000FC0AD85AA232AF4D0D1B9D4D8D1EDE26B
:100BF800ED8BED89E03019F01F5F4F5F01C00B7F6F
:100C0800342F00FD13C0151710F4351708F00EC067
:100C180007FF08C002FF04C00B7F2D89115001C0D7
:100C280020E301C020E253D25150EDCF141780F4D5
:100C3800006102FF05C085D209F0515011504150A2
:100C4800E0E3EA9359D2503009F051504150EECFC9
:100C5800312FEC89E030A9F4303091F003FF05C062
:100C6800EE85FF8525915CD205C0AE85BF852D91A7
:100C7800AE87BF872CD2503009F051503150ECCF9D
:100C880041C071D292D42E2F2A3030F003FF02C017
:100C9800295C01C0295A01C0205D04FD1DC0213313
:100CA80048F466D2A130E0E0BE07E0E08E07E0E05D
:100CB8009E0709F40BC0431740F4531710F000FFC8
:100CC80001C00EC020E207FF07C020E3006102FF59
:100CD80003C037D209F05150FAD1503009F05150C1
:100CE800315041D293D45BD1EC8942D2FF27662799
:100CF80077275BD421D2E889F9896A897B89CBD4A3
:100D080009F0BFCF00FF07C0503029F05150E0E292
:100D1800EA93F2D1F9CF10E050CED6D187D4D1D40E
:100D2800EF966F960895FF92F82E2697C7D4DE01A6
:100D3800149611D48D01E0E0EC83ED83EE83EF830C
:100D4800DE01189608D472D4CFD01A930A93E3E33D
:100D5800F4E0CAD0DE01189616DEB7D42896FF90C4
:100D68000895B6D0E991F991A991B991CD0105906D
:100D78000D920020E1F7FC010895AAD0A991B9913C
:100D8800EE27FF276D91662311F03196FBCF08956A
:100D98009FD0AA27BB27E991F9910590002011F06F
:100DA8001196FBCFFD01089526D1E0E0EA83EFE339
:100DB800EB8384D4EB85FC85EF3FAFEFFA0729F48A
:100DC800DCD1A6ECB0E0CDDF6CC0EF3FAFE7FA07AF
:100DD80029F4D3D1A7ECB0E0C4DF63C0AC85AA2363
:100DE80032F4CED10FD2D1D1D5D1EDE2EC93A88592
:100DF800A73010F0E6E0E887188506D121F0D9D0B1
:100E080047D1D2D0FACFCCD1A3D2BFD110E0C2D033
:100E1800CBD0C6D180D360F0CCD024D1C5D01F5F51
:100E2800173228F0AAD1ABECB0E09BDF3AC0F1CF83
:100E3800103021F4AFD1E0E3EC9316C0E5D0A1F077
:100E4800B8D026D11AD15BD001DCAED0A9D11ED33F
:100E58000CD20E2F9FD129D1F0E0ABD089D0C8D2C7
:100E6800A5D17ED092D1EACFE885E030B1F092D119
:100E7800EEE2EC93E885E150E887EF5F71F096D1F8
:100E8800F1D083D17DD1F1D10E2F84D10ED1F0E0F4
:100E98008DD16ED065D079D1EDCFAE81BF81E0E044
:100EA800EC9313D42D960895512AE4E05E2AA52DDB
:100EB8005CD983E08A95F1F7EBEF5E22A52D55D931
:100EC8008DE08A95F1F70895A52D4FD9A88155C9C8
:100ED800BA93AA930895A881B9810895FCDFED918A
:100EE800A883B983AE2F0895FA93EA93089511DA87
:100EF800ADE009CAFF2766277727F0D10895DF01FB
:100F0800CB010895E6B7E0780895E1B1E87F1E2F98
:100F18000895AA931A93E981E3B9E4E8E6BF08952E
:100F280094D30895A0E0B0E080E89FE30AD2089542
:100F3800AE81BF81888599850895EE81FF81688596
:100F480079850895EE83FF83688779870895FADFA6
:100F5800F4DFEEDF4DD2EA83FB836C837D83089553
:100F68008DD3EFD10895EA81FB816C817D8108954D
:100F780004D3B4D10895AA85BB858C859D85089531
:100F8800E0E0F0E060E070E00895EA85FB856C85BC
:100F98007D850895E0E0F0E060E87FE30895EA8762
:100FA800FB876C877D870895EA83FB836C837D8349
:100FB8000895AA81BB818C819D810895E885F98572
:100FC8006A857B850895A885B9858A859B85089556
:100FD800EC81FD816E817F81089544DBAC81BD8108
:100FE8008E819F8105D28BDFA1CBED91FD9131964A
:100FF800FE93EE9308956CDF2497E0E0E883E9839D
:101008000895E885F9850895E12F1150E030089595
:10101800AC81BD818E819F81E0E0F0E060E271E407
:10102800E7D1EC83FD836E837F830895EC85FD858E
:101038006E857F850895CCDFAC85BD858E859F85BF
:101048006AD20895AC85BD858E859F850895EDEC9F
:10105800FCEC6CEC7DE3CCD1EC87FD876E877F8759
:101068003F5F0895E0E0F0E060E271E4C1D10895E7
:10107800EC87FD876E877F870895A0E0B0E080E069
:101088009FE366D10895AC81BD818E819F810895CB
:10109800EDECFCEC6CEC7DE3ABD10895A885B9854B
:1010A8001196A887B98711970895E02FE05DEC9312
:1010B800E02F0895A6DF3196E887F98708953197DC
:1010C800BF01A32FEAE00895AE81BF8108952A9356
:1010D800AF81B885E985FA8509950895FE01E65A34
:1010E800FF4F0190F081E02D08953497DE01A65A54
:1010F800BF4FED93FC930895AF81B885E985FA85D4
:1011080009950895FE017696EE87FF870895DE011A
:10111800A65ABF4F0D90BC91A02D0895DFDFE5CFF3
:10112800EE87FF870895AE85BF8527DE1E2F0895B9
:10113800EEDF14967BD2F4CFE88BF98B6A8B7B8B2E
:1011480008950B7FED89EA93DE01A95ABF4F0D90F0
:10115800BC91A02DFE01E75AFF4F0190F081E02DD0
:10116800099550300895E889F9896A897B8903CF00
:10117800A889B9898A899B890895EE81FF81B4CEAF
:10118800E985FA856B857C850895E987FA876B87F9
:101198007C87089599DF1196AE83BF8311970895D0
:1011A800E2DEA985BA858B859C850895A985BA85CF
:1011B8008B859C850895109639F080ED97E001970E
:1011C800F1F7A8951197C9F70895E991F9916991EF
:1011D800799177FB660F771F88277E57880B7D9359
:1011E8008C937EE7769567956EF00895E991F9916D
:1011F8006991799177FB660F771F7A0F76956795D6
:101208000EF0089530976040704009F070580895C6
:10121800552342F4503811F4E0FF04C03196691F99
:10122800791F6BF050E8572711F45F93CFC05F3FE9
:1012380031F0660F000C57956795752F08955F93E9
:1012480000200AF0CFC0C8C050E8192E1522880F18
:10125800991F9527550F879550E8072E0522660F89
:10126800771F7527550F67950895689401C0E8940E
:101278005F93F2DF703818F07F3F08F4A7C056E19B
:10128800571BAAF4519558300EF4593030F0EFEF4F
:10129800FFEF6FEF7FE777F91AC077275523B9F08B
:1012A800EE0FFF1F661F771F5A95D1F710C07727DB
:1012B800583028F0EF2FF62F672F5850F9CF5523C5
:1012C80031F076956795F795E7955A95D1F700200F
:1012D8000AF445D15F910895689401C0E894309765
:1012E80060407040B1F0002426F0772312F4009497
:1012F80036D1172E7EE1112032F07A95EE0FFF1FBE
:10130800661F111CF9CFEF2FF62F612D5F938ADF2F
:101318005F9108954F93AF01FD01DA01AB01BC0164
:10132800CA01402D012C142E4F910895EA0FFB1F7E
:10133800681F0895E095F0956095EF5FFF4F6F4F38
:1013480008955F9381DF903871F150E8152604C045
:101358005F937ADF903839F1703821F1572F591B94
:101368002BF112F4D7DFFACF583118F0AA27BB2790
:101378008827583028F0AB2FB82F88275850F9CF36
:10138800552329F08695B795A7955A95D9F7502DE5
:10139800512572F0CBDF38F46795F795E79573958B
:1013A80013F420C0B7DF3EDF5F910895D8F7FBCF75
:1013B800EA1BFB0B680B51F010F40094BBDF6623AB
:1013C80092F3EE0FFF1F661F7A95CBF7EE27FF27E4
:1013D800662777275F910895EFEFFFEF6FE77FEFBD
:1013E8005F910895EFEFFFEF6FE77FE75F91089553
:1013F8005F932ADF703851F3903841F30124089441
:10140800791F23F41CF300203AF3ECCF0F921F93BB
:101418002F933F934F93112722279927689FA00165
:101428008F9F302D410D591F6B9F300D411D591F46
:101438008E9F27D0BF9F25D06A9F23D0BE9F1DD0E7
:10144800AF9F1BD0AE9F110D291F391F491F591F70
:10145800E32FF42F652F522F4F913F912F911F911A
:101468000F9066232AF0550FEE1FFF1F661F02C05C
:1014780073954BF2CDDE5F910895100D211D391F34
:1014880002C0200D311D491F591F08955F93DCDEEE
:10149800703821F411200AF49FCFA4CF903809F4B2
:1014A80095CF01240894970B1BF4D4F30020F3CFB5
:1014B800792F1F932F933F934F931124112722279E
:1014C80033274427552790E2AE17BF078607410701
:1014D80030F0AE1BBF0B860B410B089401C08894FB
:1014E800551F221F331F111CAA1FBB1F881F441F13
:1014F8009A9551F7F901612D4F913F912F911F91C5
:10150800662332F0550FEE1FFF1F661F7A9543F2D0
:101518007FDE5F91089599239AF0772342F0971719
:1015280048F029F4AE17BF07860720F031F09894E9
:101538008894089598940894089518948894089520
:101548007723C2F7971798F3A9F7EA17FB076807F5
:1015580088F399F3ECCF0024AF0DB01D0895F095F2
:1015680060957095E195FF4F6F4F7F4F0895FE2F5F
:10157800FF0FFF0B6F2F7F2F08956F2F660F660BDE
:10158800762F0895002498E0AA0F001C0E1A10F474
:101598000E0E01C0A1609A95B9F7EA2FA02D089503
:1015A80039D0F0DF0EF4E19508953F934F935F93A0
:1015B800002411244427552730E2AA0FBB1F881F97
:1015C800991F001C111C441F551F0E1A1F0A460B99
:1015D800570B28F40E0E1F1E461F571F01C0A1608F
:1015E8003A9559F7FD01BC01D001CA015F914F91AD
:1015F8003F910895E894A7FF02C0A1956894E7FD7C
:10160800E195C0DFEA2F0EF4E1950895CEDFFD01E4
:10161800BC010895E894E7FF02C0E1956894A7FF2C
:1016280004C0A19500F8039400FA0895ED91FC9187
:1016380011970895ED91FD916D917C9113970895FF
:10164800ED93FD936D937C930895E881F9816A8108
:101658007B810895A881B9818A819B810895E88357
:10166800F9836A837B8308957A936A93FA93EA935A
:1016780008959A938A93BA93AA930895182E862F59
:10168800612D192E972F712D1B2EBF2FF12D1A2E7C
:10169800AE2FE12D089530976040704008950024E2
:1016A8000A160B06080609060895EA17FB076807D5
:1016B800790708955A934A933A932A931A930A9367
:1016C80008955D814C813B812A81198108810895A3
:00000001FF
